:020000041004E6
:1000000000800020150A0410D9070410DB07041033
:10001000AA5555AA0000000010B50B004B4301681B
:100020005C00E418A14353430B43036010BD4368D5
:100030008B43514319434160704710B50B004B434C
:1000400081685C00E418A14353430B43836010BDF7
:1000500010B5090A0B004B434B434B43416A1C014B
:10006000E41AA14353430B43436210BDC648142214
:1000700051434018143801680122914301607047D0
:1000800000690840884201D1012070470020704774
:1000900081B0BE490A6802430A60096808400090BE
:1000A000009801B070477CB500F098FB8020C0003C
:1000B000B7490A6802430A6009680840009000983E
:1000C0000420FFF7E5FF9025ED058026B60002220B
:1000D00031002800FFF7A0FF022231002800FFF7BF
:1000E000ACFF002231002800FFF7A1FFA94C606897
:1000F000A94901406160206830432060002231003E
:100100002800FFF7A5FF7608022231002800FFF73C
:1001100083FF022231002800FFF78FFF0022310009
:100120002800FFF784FF60689C49014061602068F7
:1001300030432060002231002800FFF789FF984CEF
:100140001120E0602068974901402160964D606869
:100150002840606020680C2101432160934EA06814
:100160003040A060A06892490140A160A068C00032
:10017000C008A06020688021890501432160606873
:100180008C4901406160A0682A218843A0602068F2
:100190000121014321600120FFF77AFF9120C00572
:1001A00001681F2291430D220A43026076480168CC
:1001B000814A0A4010211143016001680D408021ED
:1001C000890129430160016820229143016001688F
:1001D000402291430160802102680A430260026864
:1001E000164006600268754B13400360A068014327
:1001F000A16073BDF4B584B007000C00704D686851
:1002000004218843686004980009019000264BE0AF
:100210000F202861300138188003000CA861207875
:10022000617809020143A07800040843E1780906D7
:1002300001432964201D0178427812020A43817823
:1002400009041143C27812060A436A64001D01784A
:10025000427812020A43817809041143C2781206D7
:100260000A43AA64001D0178427812020A43817889
:1002700009041143C27812060A43EA64041DCC2023
:10028000286001212800FFF7FBFE002805D104218A
:100290002800FFF7F5FE0028F3D004212800FFF71F
:1002A000EFFE00284ED1761C01988642B0D30001A3
:1002B0000499091A049101918907890F03D0019AC1
:1002C000121D511A01913818039000226E4601E068
:1002D000029A121D0198824236D200200499131806
:1002E0008B4201D2E35C00E0FF233354401C04281E
:1002F000F5DB049102920F202861039802994018BF
:100300008003000CA8613078717809020143B0784D
:1003100000040843F178090601432964332028606A
:1003200001212800FFF7ACFE002805D10421280098
:10033000FFF7A6FE0028F3D004212800FFF7A0FE57
:100340000028C5D0052000E0002005B0F0BD10B5A4
:100350001B4C0F2020618803000CA061112020603D
:1003600001212000FFF78CFE002805D10421200088
:10037000FFF786FE0028F3D004212000FFF780FE5F
:10038000002800D0072010BD0800704850004048E9
:100390005800404820005048FFFDFFFFFFFEFFFFD0
:1003A00000400041FFE9FFEFFFCFFFFFFFFCFFFF31
:1003B000FFFFFFF1FFB7FFFFEFBFFFFFFFF3FFFFFF
:1003C00000100040F0B5FFB08CB000216A461170FB
:1003D00011715171D180117211820591042111772F
:1003E000FF2107AA5170032191700121D1700021D2
:1003F000117107A9487106206946488101200871DA
:1004000030E0072069464881002069460870684648
:10041000007900281BD00598002818D101240594E4
:100420000121BB48FFF722FE07A8B9494861B94836
:100430000861C868000C0004694649890843B4494A
:10044000C860886804438C60002069460871B04821
:100450000168890706D5022141600021059101212B
:10046000FFF704FE6846007900281BD168464079F2
:10047000002817D00598002814D1A7480068000666
:10048000FBD5A54908688006C20FFAD10868400666
:10049000FCD5BFF34F8FA148A1490860BFF34F8F30
:1004A00000BFFDE76846037A018AC289808900E0BF
:1004B0000420994C2468A406E50F3FD0964CA4680C
:1004C000E4B21D0002D100256E46F5806D46ED8830
:1004D0006E1C6F46FE8049AE74551D0008D1012385
:1004E000012CE5D0812C01D10520E2E70023E0E7D3
:1004F000012B18D16C46E4888442DAD149AC2378C8
:1005000000210022012B01D1E27806E0812B10D1DD
:10051000E27823791B061B0C1A43130009D0FF2A2B
:10052000E4DC0223C5E7022BC3D1491C8CB2944200
:10053000BFD3002301246D462C70BAE76C462372AA
:100540006B4619826946CA8188816846007801280D
:1005500002D168464079002800D058E749A80178C0
:10056000012949A901D14C1C00E08C1C04211977F8
:100570000E2207AB5A7007AA91700121D9704278F8
:100580001A71837807AD6B71002507AEB5716E46A1
:100590003171FC2B00D004E1C07804280FDBE07837
:1005A000009025792D0205430095284665792D0494
:1005B000054300952846A5792D06054300951000B2
:1005C00021380928E6D802A52D5C6D00AF4400BF94
:1005D00005080D1521324493BC2C68464171E6E0B4
:1005E00007A805218170092122E007A80621817052
:1005F0004021C17100210172D9E000200090042245
:1006000069467148FFF7F6FD00280CD04A2007A97B
:10061000C5E06E480090042269466B48FFF7EAFD8A
:10062000002800D04A208CE007A805218170FF2116
:10063000C171BCE007ACF220A07100986449884207
:10064000F7D30098800506D100990220FFF77FFEBE
:10065000002800D1A071AAE0F12007A988710098B4
:100660005B498842F7D3E079217A0E0206430327DB
:100670000098032505400ED0401B009076190020FD
:1006800007E000990918097822000932431BD15468
:10069000401CA842F5DB3740032086430ED03200D1
:1006A00020000930694241180098FFF7A3FD002897
:1006B000D1D107A98871009880190090002F76D0B9
:1006C0000020874206D221000931721B1218009BBC
:1006D0001B788B54401C0428F3DB06950422284623
:1006E00041426018811909310098FFF783FD002805
:1006F00027D0F12025E000983549884220D3E179C0
:10070000207A00020843002107AAD41D11E000BF8F
:1007100000007048284000411C4000410400FA05D8
:100720000CED00E0009B1B786354009B5B1C009366
:10073000491C8142F6D3001D07A98870002001E002
:10074000F02007A9887132E007A9F02088710820FD
:100750008870FF20C87108724872887200981C4A1D
:10076000904224D300208871E079C2020024002343
:10077000184E0CE00098C01800686040040020206B
:100780006500E40F74436C40401EF9D11B1D934279
:10079000F0D3CC71200A0872200C4872200E8872A7
:1007A00005E007A80F244470017142718371684607
:1007B0000079012800D027E607A88078042800DC0B
:1007C0001FE6C01C1EE600001420041045554C42D4
:1007D00000200410B71DC104FEE7FEE7F0B585B0A8
:1007E000554800680A2188430821014352480160A6
:1007F00052485349086053490868E02202430A609E
:1008000008694007FCD520228869302398431043AB
:1008100088614D4B9868D40104439C6001244B4D82
:1008200068694B4EB0421FD1286804902868009038
:1008300028682E683604360F03962E680125370285
:10084000FC26B6053E400296C0091E2606400196CB
:100850000098C001E026B601064004988701F02008
:1008600080003840009009E010010090C026760119
:1008700010200190F020400502900025DF683548E7
:100880003840029F0743DF60D86897040743DF6062
:100890001E20C043002D08D0DD680540039F7F0067
:1008A0002F43DF60DD682543DD602B4D2F68384026
:1008B000019F07432F60286804432C602868274C59
:1008C0000440009820432860286810432860286866
:1008D000234C044026432E602868540104432C60B6
:1008E0008869D40004438C61D00299681D4C0C4087
:1008F00004439C60196804240C431C6019680907B0
:10090000FCD519680843186018688003FCD59868FE
:10091000E021884302439A601868802189010143DD
:10092000196018684004FCD50348016830229143DF
:10093000016005B0F0BD000004100040000004108C
:1009400008ED00E00400504800004048E41E00109C
:10095000CCECBCFCFFFFFFC0940050483FFCFFFF05
:10096000FFC7FFFFFF7FFEFF70B522482249234AE1
:100970001268002A08D10A68002A05D04168006878
:1009800080F308888847FEE71D4A0B6913400B6116
:10099000D3434C691C434C6104251A4C246826043B
:1009A000F40F6D1EF9D14D692A404A610A6913435B
:1009B0000B611549154A936A154DAB4207D19162F7
:1009C000FFF771FB0220FFF7FDFC002070BD4269BC
:1009D0008A4203D0FFF767FB0320F4E7002C03D023
:1009E000FFF761FB0420EEE74168006880F30888A8
:1009F0008847FEE70020041010005048940040484B
:100A0000FF7FFFFF1000004845554C4204000020C6
:100A10000101010180B572B6FFF7A6FF01BDFFFF1E
:100A2000FFFFFFFFFFFFFFFFFFFFFFFFFFFFFFFFD6
:100A3000FFFFFFFFFFFFFFFFFFFFFFFFFFFFFFFFC6
:100A4000FFFFFFFFFFFFFFFFFFFFFFFFFFFFFFFFB6
:100A5000FFFFFFFFFFFFFFFFFFFFFFFFFFFFFFFFA6
:020000041004E6
:1020000000800020E9DC051039C50510A9C00410C6
:10201000AA5555AA45554C4200000000000000009A
:1020200000000000000000000000000061F3051047
:10203000000000000000000019D3051045F4051051
:102040005D610410E5DC0510CDD20510B9C00410A7
:10205000BBC004105BF305105DF305105FF30510C2
:1020600077FB05105DBE051081F6051091DD0510AA
:10207000C72C041029CF051075FB05106DB2041094
:102080006FB2041091510410BD4404108942041031
:102090008D42041081DC05104FBF0510954A0410D5
:1020A000E9440410A54204100000000000000000F4
:1020B0000000000000000000000000000000000020
:1020C00000F002F800F09CF80CA030C80838241882
:1020D0002D18A246671EAB4654465D46AC4201D160
:1020E00000F08EF87E460F3E0FCCB64601263342F6
:1020F00000D0FB1AA246AB4633431847BCEB0200A4
:10210000ECEB0200103A02D378C878C1FAD8520733
:1021100001D330C830C101D504680C60704700009D
:102120000023002400250026103A01D378C1FBD8F3
:10213000520700D330C100D50B60704710B59042F4
:1021400016D98AB2030C090C0C46594380B253438A
:10215000444350431B191A041B0C10185941802288
:102160005203002312184B41520DD802104310BDE8
:102170004843802252031218520D104610BD000031
:10218000EFF31482EFF30981154880F31488BFF34D
:102190006F8FF0B543464C4655465E466746F8B4E9
:1021A000104CEFF30883636006B4BFF34F8F30BF6A
:1021B00000BF00BF0B4C646884F3088882B003BC86
:1021C000F8BC9846A146AA46B346BC46F0BC04BC3F
:1021D00080F3098881F31488BFF36F8F10470000E4
:1021E00000000000040000201FB50248024900F072
:1021F00046FB1FBD006D00200074002010B510BD0F
:1022000003488546FFF7F0FF2AF042FF00F08CFB01
:102210000080002003B4FFF7F1FF03BC00F0BAFB1D
:1022200070B505460C46164602E00FCC0FC5103EB1
:10223000102EFAD2082E02D303CC03C5083E042E7A
:1022400007D301CC01C5361F03E021782970641C37
:102250006D1C761EF9D270BD70B5064600F0F2FA1C
:10226000056830460B30C408E400B44201D80020B1
:1022700070BD68682A46002818D00168A14211D3B1
:102280000B46214608318B4208D3436801194B6045
:1022900003681B1B0B605160046001E041685160E2
:1022A000001D70BD024640680028E6D12146284640
:1022B00000F0D0FA0028DCD170BD70B50446051FCF
:1022C00000F0C0FA0068002C1AD0446801E02046F3
:1022D0006468002C01D0AC42F9D301680A18AA4204
:1022E00004D12A6805468918016000E04560286825
:1022F0004119A14205D161686960216840182860D0
:1023000070BD6C6070BD70B50D460646041F00F0D0
:1023100099FA0268002D09D0002E0CD028460B3007
:10232000C108C900A9420AD2002070BD3046FFF79B
:10233000C4FF002070BD2846FFF78EFF70BD2368E4
:102340008B4208D35A1A082A25D3601804C021608A
:10235000FFF7B3FF1FE0506801E002464068002825
:1023600001D0A042F9D31D19854216D105685B1929
:102370008B4212D35D1A082D0AD3456863185D603D
:10238000256800682818401A18602160536002E030
:10239000236040685060201D70BD081FFFF75CFF80
:1023A000050007D02268211D121FFFF739FF201DED
:1023B000FFF783FF284670BD10B5202A04DB0146D5
:1023C000203A9140002010BD914020239C1A0346E2
:1023D000E3401943904010BD034610B50B439B07E3
:1023E0000FD1042A0DD308C810C9121FA342F8D078
:1023F00018BA21BA884201D9012010BD0020C0437B
:1024000010BD002A03D0D30703D0521C07E00020E0
:1024100010BD03780C78401C491C1B1B07D10378A6
:102420000C78401C491C1B1B01D1921EF1D118468F
:1024300010BD10B5044600F002F8204610BDF8B5F6
:10244000042A2CD3830712D00B78491C0370401C3C
:10245000521E83070BD00B78491C0370401C521E80
:10246000830704D00B78491C0370401C521E8B0755
:102470009B0F05D0C91ADF002023DE1B08C90AE024
:10248000FFF7CEFEF8BD1D4608C9FD401C46B4400E
:102490002C4310C0121F042AF5D2F308C91A521E89
:1024A000F0D40B78491C0370401C521EEAD40B7800
:1024B000491C0370401C012AE4D409780170F8BD5E
:1024C000431A70B593421BD28918801804E0491E44
:1024D000401E0B78521E03709307F8D106E01039A6
:1024E000103878C9103978C01038103A102AF6D24E
:1024F00003E0091F001F0B680360121FF9D570BDB0
:10250000FFF78EFE70BDF8B50646144608438007F7
:1025100007D0751AA54219D20819102D13D23119F6
:1025200007E03046FFF7CCFFF8BD401E491E027899
:102530000A70641EF9D2F8BD471B2A463946FFF7D8
:102540007EFF641B3846A542F6D3011B2246304667
:10255000FFF775FFF8BD134610B50446CAB2194619
:102560001002821810048218204600F018F8204645
:1025700010BDD2B210B513029A1813049A1800F0C5
:102580000EF810BD01E004C0091F0429FBD28B071F
:1025900001D50280801CC90700D002707047002955
:1025A0000BD0C30702D00270401C491E022904D37D
:1025B000830702D50280801C891EE3E70022EEE734
:1025C0000022DFE70378C2781946437812061B021F
:1025D00019438378C0781B04194311430902090A7F
:1025E000000608437047020A08704A70020C8A709D
:1025F000020ECA70704710B542780378110E1202AD
:1026000013438278140C12041343C2782143140A32
:1026100012061343027921431143427912021143F6
:102620008279C0791204114300060143184610BD97
:10263000F0B50D06040A2C43107054700D04040C00
:102640002C4394700E02040E34430F0AD4700D0C08
:10265000117157710E0E9571D671F0BD00220309EC
:102660008B4273D3030A8B4258D3030B8B423CD368
:10267000030C8B4221D312E003460B437FD400228C
:1026800043088B4274D303098B425FD3030A8B4206
:1026900044D3030B8B4228D3030C8B420DD3FF2270
:1026A000090212BA030C8B4202D31212090265D03E
:1026B000030B8B4219D300E0090AC30B8B4201D3F1
:1026C000CB03C01A5241830B8B4201D38B03C01A38
:1026D0005241430B8B4201D34B03C01A5241030BAF
:1026E0008B4201D30B03C01A5241C30A8B4201D360
:1026F000CB02C01A5241830A8B4201D38B02C01A0B
:102700005241430A8B4201D34B02C01A5241030A81
:102710008B4201D30B02C01A5241CDD2C3098B4266
:1027200001D3CB01C01A524183098B4201D38B01E3
:10273000C01A524143098B4201D34B01C01A524186
:1027400003098B4201D30B01C01A5241C3088B42CB
:1027500001D3CB00C01A524183088B4201D38B00B6
:10276000C01A524143088B4201D34B00C01A524158
:10277000411A00D201465241104670475DE0CA0F2F
:1027800000D04942031000D34042534000229C46EF
:1027900003098B422DD3030A8B4212D3FC228901F9
:1027A00012BA030A8B420CD3890192118B4208D3CF
:1027B000890192118B4204D389013AD0921100E031
:1027C0008909C3098B4201D3CB01C01A5241830945
:1027D0008B4201D38B01C01A524143098B4201D372
:1027E0004B01C01A524103098B4201D30B01C01A9D
:1027F0005241C3088B4201D3CB00C01A5241830817
:102800008B4201D38B00C01A5241D9D243088B426C
:1028100001D34B00C01A5241411A00D2014663460F
:1028200052415B10104601D34042002B00D5494273
:10283000704763465B1000D3404201B50020C0469C
:10284000C04602BD004870471C23002070477047F7
:102850007047704738B504460A4600206946C046AE
:10286000C046002805D002462046009900F03BF8FB
:10287000012038BD10B5012000F04FF810BDF8B5AB
:10288000C046C046054600200C461020C0460646FD
:10289000A819A0420DD9324669460020C046C0465C
:1028A000070001D100F039F80098A04200D0054699
:1028B000C419FFF7C7FFF61D07460560F008C00002
:1028C0004619284600F008F8B44204D0314638686A
:1028D000A21B00F008F8F8BD002101604160806093
:1028E00070471020704710B50346406801E003466A
:1028F0004068002801D08842F9D31868C3188B4279
:1029000006D0CB1CD808C000001D411A521A01463F
:10291000081D0A60FFF7D1FC10BD10B500F012F8D9
:1029200000F00AF810BD704710B50446C046C04616
:102930002046FFF76FFC10BD10B5002801D000F055
:1029400029F810BD10B5012805D0002103A000F022
:1029500027F8012010BD09A1F8E7000053494752AC
:10296000544D454D3A204F7574206F66206865615F
:1029700070206D656D6F7279000000003A20486527
:102980006170206D656D6F727920636F7272757002
:102990007465640001491820ABBEFEE72600020002
:1029A00070B505460C460A2000E06D1C00F012F8D8
:1029B000002D06D028780028F7D102E0641C00F032
:1029C00009F8002C02D020780028F7D10A2000F066
:1029D00001F870BD08B5694608700320ABBE08BD9C
:1029E00070B58C180578401C6B075B0F01D103781C
:1029F000401C2A1106D10278401C03E00678401CD6
:102A00000E70491C5B1EF9D12B0705D40023521E02
:102A10000DD40B70491CFAE70378401CCB1A921CAA
:102A200003E01D780D70491C5B1C521EF9D5A142B4
:102A3000D8D3002070BD000010B50C4A51680029A1
:102A400006D04C8843889C420AD9C160506010BDB2
:102A500000215060C16010BD54889C4203D81146CB
:102A6000CA68002AF8D1C260C86010BD7C0100208D
:102A700070B505460C320E4690B224F00BFB0400F4
:102A80001AD00C20704324F005FB6060002807D0AA
:102A90000020A060094925800868002805D007E0CB
:102AA000204624F02BFB002406E00C6004E00846DE
:102AB00081680029FBD18460204670BD7C01002024
:102AC00010B5044600F076F8204600F099FD10BDE0
:102AD00001460548406803E042888A4202D0C06847
:102AE0000028F9D1704700007C01002070B516461F
:102AF0000C46054600F054F83146284624F006FB03
:102B0000002C06D0204624F0C5FA010002D1002492
:102B100000E00021204600F0C1FD70BDF8B50E4672
:102B200039E01E49C5684A68002A10D05488438895
:102B30009C4209D1D2684A6009E04C889C4202D18B
:102B4000C968D16003E00A46D1680029F5D104467E
:102B50000078012804D002280ED16068876901E05E
:102B60006068076A002F07D0B868002801D024F0F9
:102B7000C5FA384624F0C2FAA068002801D024F033
:102B8000BDFA606824F0BAFA204624F0B7FA287833
:102B9000B04202D028460028C3D1F8BD7C010020F5
:102BA00010B5034800214160016000F0F3FD10BD45
:102BB0007C01002070B50F4B01461A6800201446B6
:102BC00014E025888D420FD1A24202D1A06818607E
:102BD00001E0A1688160002C05D0606824F08EFAC5
:102BE000204624F08BFA70BD2046A468002CE8D162
:102BF00070BD00007C01002010B51446012803D0F0
:102C0000022808D0822010BD204602220C301AF083
:102C1000B9F8102004E0102220461AF0B3F8802002
:102C20002074002010BDFEB5002506462C466A46DD
:102C30002946304600F042FD002812D0002D40D039
:102C4000002C0CD0A3685878C00708D01878012849
:102C500035D09A88294630469B1D20F03DFF00253F
:102C6000E5E7002D02D0002C11D006E0684605886B
:102C70002846FFF72DFF040007D0A3686846408868
:102C80009988884205D90720FEBD0E20FEBD0A2086
:102C9000FEBD6A46928887188F4201D90D20FEBD7D
:102CA0001818801D02991AF06DF8A06801780129A2
:102CB000BDD16A465188928889184180B7E75A8801
:102CC000C8E70020FEBD7047F1B594B0149C07948E
:102CD00014F068FF064600200C9001200D908648F5
:102CE000006800F05BFF149C2546E035C0340028E6
:102CF0007CD08248314600680831E030007A11907B
:102D00003078C20909A81CF043FF3078B11C400696
:102D1000C20F0FA81CF03CFF30780007000F129084
:102D2000052801D108F016FEE189227D079800925E
:102D30008C3002910190237A04AA0FA8129917F0FF
:102D4000E5FD07460498000A000238430490C0B22B
:102D5000FE2802D10498FD3804900798099AC06FA4
:102D60000168914203D140680A99884200D0FF2748
:102D70001298032807D1FF2F05D0207A800702D5AB
:102D80001198012805D004A817F0F6FB002820D0E0
:102D90002AE0079800F01AFF01200C90A07E01287D
:102DA0000BD1E0895649884207D069460A7C04ABBA
:102DB000C1B20133A12027F0C7FAA87801F03EF98B
:102DC0000120A0740021079800F0A2F800200D90C7
:102DD0000CE01298052807D1FF2F05D0207AC007F4
:102DE00002D01198012808D00020A080424E3068FF
:102DF00000F0D4FE00281BD020E0079800F0E6FE8B
:102E000008F0A8FDE2890120009204A900270290A1
:102E1000019703910246AB78697A30460FF08AFA3F
:102E200004A817F0E9FA2F70A87818F005FCDDE780
:102E3000306800F0BEFE002800D1A080287900286C
:102E400027D0A188002927D1401E2871207A800729
:102E50001CD00221A1806979E07C1CF0BEFE687163
:102E6000AA780146104601F073F8A87801F0E6F858
:102E7000079800F011FF08F06DFD0020A0740146D6
:102E8000079800F045F81CF0EDFC1CE00020A08045
:102E9000E1E7A08800281FD0306800F08AFE0028F3
:102EA00011D0079800F0F8FEA07D012821D0154927
:102EB0000798143000F024FFA088401EA080002056
:102EC0000D9000F001FD0C98002802D0A088401E53
:102ED000A0800D9815B0F0BD08F03CFD079800F0FB
:102EE000DBFE0021149800F02FF8A87818F0A4FB5E
:102EF000E9E74621DCE70000DC020020E0020020D8
:102F0000FCFF0000EE020000FF21E03081707047FE
:102F1000F8B505460446C035A87D2AF0AFF9064647
:102F20002746E037B878314601F09EF8B878314648
:102F300001F058F800F0C8FC14F03CFE0246A87CF2
:102F4000214602F020FFF8BDF0B58BB00022064606
:102F5000044680360892F06A451806E07168F06A07
:102F60004018F0620898401C08902846F16A18F052
:102F7000BDFE0028F2D12546C035287A000707D4C7
:102F8000012009F085F80005F16A000D4018F06293
:102F9000E87C2746C1078207C90FD20F891842076C
:102FA000D20F8918E037491E3971297A890700D074
:102FB0000221A9801CF007FE01467871B87800F064
:102FC000C7FFB87801F03AF80020A87420462830EE
:102FD00012F0C0FB2046403012F0BCFB726AF06A6F
:102FE000111A6889002802D17B78012B03D00029AF
:102FF00066DA002A64D03978002961D0297A364B04
:10300000090743D535493D2209682046525C943072
:10301000920652D540318A79D20717D00021029109
:10302000039104910591411C00780191009018686A
:103030002030007BC00701D0002000E010200123D9
:1030400000223C21803024F0DDFE36E0C97989077A
:1030500033D5002109910A910491059106910791B8
:10306000411C007809AA029203920191009018680D
:103070002030007BC00701D0002000E01020012399
:1030800000223C21803025F001FC16E000280CD005
:103090003C212A7B101AC0B200901868AA7B20300D
:1030A000007BC00703D0002002E04321F1E710209D
:1030B000A12318430A4B24F04BFD204602F04FFE9B
:1030C0006889401E6881B878F16A18F0C5FD002053
:1030D000A87408980BB0F0BDD0020020E0020020D8
:1030E000FF0F0000F8B503241A4E054664071A487E
:1030F00003700868A0624868E06288682063C86856
:1031000060632868A0636868E063A8683060E86866
:10311000706064206F463870A06D01273843A06549
:103120006F463878401E3870E06DC007C00F02D07F
:1031300038780028F4D13878B0681060F0685060B2
:10314000306990607069D060034800789842CED1B1
:103150000020F8BD40000060C101002008B50B4808
:103160000121026A91430ED0026801210A430260E4
:103170000168490849000160026A01210A430262AC
:10318000006A08400090002008BD00004000404850
:10319000F7B58CB06B4604AC08AD00210F26575C28
:1031A000761A491C9F551029F8DB002103277A1A4B
:1031B0009200865C8B00E654865A1B19360A5E70B4
:1031C0008658491C360C9E708258120EDA700429FB
:1031D000EDDB00232A4669462046FFF783FF0024E3
:1031E000A6007019401CFFF7EDF9A95D0002084325
:1031F000391B8A000D99641C8850042CF0DB0FB039
:10320000F0BD70B5BAB0054600200C4600902020F5
:103210006946087210200A9038901E46039201A851
:1032200000F07EF92246294601A800F007F86A4618
:10323000314601A800F03EF93AB070BDF7B590B044
:103240000F46040004D0002F06D11298002803DD99
:103250006120400113B0F0BD1298002804DB102853
:1032600004DA2079800601D49148F3E720794107F8
:1032700001D4810702D58E48401CEBE7402108436A
:1032800020710025204614300C901DE00026B0006F
:1032900004904019C0190390FFF794F900BA010A8D
:1032A00003980902C07808AA01430498761C001903
:1032B000406941400498042E1150E8DBA26808A838
:1032C0000C99FFF765FF059D12992846103005906F
:1032D0008842DBDB207980061FD400291DDD002613
:1032E000B00003904019C0190090FFF76BF900BAC5
:1032F000010A00980902C07808AA01430398761CC5
:103300000019406941400398042E1150E8DBA2687F
:1033100008A80C99FFF73CFFC7E000200390049039
:103320000590069003A90846A268FFF731FF0398AD
:103330008721C00F48430399049A4900D20F1143D3
:1033400003910499059A4900D20F114304910599FC
:10335000069A4900D20F114305910699129A490025
:10336000414028461030069190421CD10026B00002
:103370000D904019C0190790FFF724F900BA010A0F
:1033800007980902C07803AB01430D98761C001919
:1033900042690D981858424051400D9808AA1150A2
:1033A000042EE4DB78E003988722C00F5043039A91
:1033B000049B5200DB0F1A430392049A059B5200B0
:1033C000DB0F1A430492059ACB0F52001A43059261
:1033D0004A00424012980692421BD017800F0026E6
:1033E000801880100D92009019E0B0000F904019E5
:1033F000C0190E90FFF7E6F800BA010A0E9809020C
:10340000C07803AB01430F98001942690F98185810
:10341000424051400F9808AA11500098761CB042C3
:10342000E3DCB000011903AA49691258514008AA07
:1034300011500D9B00211B1A42199C4696460BE029
:1034400072465218BA5CCD0018235B1B9A4008AB39
:103450001D586A401A50491C8C45F1DC002909D0DE
:10346000CD00182108AA4D1B13588021A9404B40BC
:10347000135005E008A90A580123DB075A400A50F7
:1034800008AA03A905E0B00003195B690D586B4059
:103490001350761C042EF6DBA26808A80C99FFF7DF
:1034A00077FE20790421084320710020D2E6000035
:1034B0001D0C0000F8B516460F46040009D0002E7A
:1034C00007D025468035E86D401E102804D31348E8
:1034D000F8BD61204001F8BD2079400604D40022E7
:1034E00011462046FFF7AAFE2079022108432071E9
:1034F000002018210CE0C217920F121892089200B7
:10350000121983075269DB0ECB1ADA403A54401C79
:10351000EA6D8242EFDC00203260F8BD1F0C000033
:1035200010B5040007D002230022A16800F01AF8A9
:10353000010003D00CE06120400110BD102020618B
:103540000020024683001B19401C5A610428F9DB45
:10355000606A102801D0024810BD084610BD000066
:103560001D0C0000F0B5002807D0002905D05B072E
:103570009B0F002A04D1012B02D061204001F0BD35
:10358000446A102C03D0182C01D0202C05D1012B1B
:1035900005D00469641E102C01D31848F0BDC26028
:1035A0000479F9252C400471012B20D000231C46FE
:1035B0009D002D185B1C6C61042BF9DB0023182681
:1035C00012E0DC17A40FE418A408A4002418254670
:1035D0001435AC469F07D55CFF0E6469F71BBD40F0
:1035E0002C4365465B1C2C6004699C42E9DC027933
:1035F000D20700D181600020F0BD00001F0C000048
:10360000F8B5134E134C07466B4600223146384638
:1036100000F022F8002819D1009861680325421AA9
:1036200093B2C288D21D2A43521C92B29D184919E6
:103630002588AD1AEA1A1204920C03E008C9521E3A
:1036400008C092B2002AF9D12580DDE7F8BD00005C
:10365000FF7F0000C8020020F0B50F4D9C460346D6
:1036600000242F8868680FE005192E880E409E42BE
:1036700003D1002A0CD0521E92B2ED880326ED1D14
:1036800035436D1C2C19A4B2A742EDD88620F0BD9D
:10369000604605600020F0BDC80200208208064890
:1036A000920042800322491E1143491C41600021BF
:1036B0000180084670470000C8020020F7B5144F8B
:1036C00082B015460E4600246B46224639460298C3
:1036D000FFF7C2FF002816D1002E03D000994988B9
:1036E000B14212D100990123498829800099898823
:1036F00069800099CA88AA800A460832AA600A88A6
:10370000DB031A430A8005B0F0BD641CA4B2DBE7FA
:10371000FFFF0000F8B5124D1C4607466B88862057
:103720009446002B1BD02A8826469B1A9BB208364B
:10373000B34214D368688218178051806146918023
:103740001046D48008302246069919F01BFB03214D
:10375000E41D28880C43641C001928800020F8BD53
:10376000C802002038B514460A466B460849FFF7E0
:1037700073FF00280AD1009949882180009989881F
:1037800061800099CA88A2800831A16038BD00001C
:10379000FFFF00000149002008807047C802002098
:1037A000054800210068803001754175032181754D
:1037B000C175002070470000E002002070B504468B
:1037C0000A489025006801231A46006929461DF021
:1037D0005FFB010003D028464C601DF045FB044808
:1037E00000688030017D491C017570BDE402002035
:1037F000E002002010B5002101828174826882619C
:10380000426101600CF0C2FF842801D0812010BD0C
:10381000002010BD70B5C17C04464906490EC17434
:103820000A489025006801230022006929461DF0FE
:103830002FFB010003D028464C601DF015FB044807
:1038400000688030417D491C417570BDE402002054
:10385000E002002010B50A4C6078002804D1094825
:1038600023F092FD002808D10648103023F08CFD8B
:10387000002802D12078002800D0002010BD0000D0
:10388000A0010020D01F002003235B0759684F22AE
:1038900011409043014359607047032149078869EB
:1038A00008229043104388617047042801D01220F9
:1038B00070479D2070470000024841688022914374
:1038C00041607047C00000200248416880221143D7
:1038D00041607047C0000020034841690122D205C1
:1038E0001143416170470000C00000200348416956
:1038F000012292071143416170470000C00000207F
:10390000024841690422114341617047C000002010
:1039100003498A68120A120202438A607047000053
:10392000C000002004498A68FF231B029A4300025A
:1039300002438A6070470000C0000020006802490E
:103940000A68086070470000C000002004494A6807
:10395000FF231B029A43000202434A6070470000A3
:10396000C00000200349CA68120A12020243CA605A
:1039700070470000C000002004498A68FF231B0430
:103980009A43000402438A6070470000C000002090
:1039900003498A681202120A000602438A607047CD
:1039A000C000002004494A684006D209D201400EF6
:1039B00002434A6070470000C000002004494A6882
:1039C000FF231B049A43000402434A60704700002F
:1039D000C000002003494A681202120A000602438E
:1039E0004A607047C00000200449CA68FF231B02D8
:1039F0009A4300020243CA6070470000C0000020E2
:103A000003490A69120A120202430A617047000060
:103A1000C00000200449CA68FF231B049A43000425
:103A20000243CA6070470000C0000020044AD16809
:103A30003F231B068006994380080143D1607047ED
:103A4000C000002010B5FFF737FF7420FFF794FF88
:103A50003820FFF79DFF1020FFF7DCFF1020FFF755
:103A6000E5FF1420FFF77EFF0520FFF7BDFF0220D2
:103A7000FFF7C6FF4020FFF769FF3F20FFF79EFFDB
:103A80000920FFF7A7FF7620FFF742FF3A20FFF754
:103A900049FFFFF735FFFFF71FFF0120800701688F
:103AA00000680906090F09010007000F0143002201
:103AB0000123264820293BD303705E21417024490D
:103AC000896B8170C3705D2101712149496B41711E
:103AD00083715221C1711E4989680172437212219A
:103AE00081721C498968C172037315214173194998
:103AF00049698173C3731A2101741649896A417433
:103B000083742221C174134940318C680475437554
:103B1000212484754C68C475037623244476C968CF
:103B200081761B21C37601770A49C96A417782777A
:103B3000064910390860486008460C308860CA6041
:103B40000C38FFF7FBFE0448036110BDF82000208D
:103B500040160060401500600014006001490840F4
:103B60007047000030DFCB00012189050840704715
:103B7000002070470121890708407047012149064C
:103B8000084070470121490308407047012189041A
:103B9000084070470121090408407047C00FC00762
:103BA00070470121890608407047012149070840F4
:103BB00070474021084070470121090608407047BE
:103BC00070474168802291434160704741684908CD
:103BD0004900416070474268012109038A430A4352
:103BE000426070478068704710B51422002119F0B8
:103BF000CDF810BD10B501210CF01EFC10BD10B5A4
:103C000001210CF02AFC10BD70478268816070476A
:103C100041688022114341607047C16801229207C8
:103C20001143C1607047C168012252061143C1604F
:103C30007047C1680122D2071143C1607047C16853
:103C4000012292061143C1607047C26801214907F1
:103C50008A430A43C2607047C268012109068A4349
:103C60000A43C2607047426804218A430A434260A3
:103C7000704702680160704710B500210CF0F5FB39
:103C800010BD704710B501210CF0EFFB10BD41686D
:103C900040221143416070474168012249084900B0
:103CA00011434160704710B501210CF0CDFB10BDF0
:103CB000C2680903120D1205090B0A43C26070475E
:103CC000C168012212051143C1607047C268012119
:103CD000C9058A430A43C2607047C2680121890549
:103CE0008A430A43C260704710B5426801218902C5
:103CF0008A430A43426001210CF0A6FB10BD00007C
:103D0000044A08031169044B000919400143116179
:103D100070470000C0000020FF0000F05022504318
:103D2000054A801840220029C16D01D0114300E0EE
:103D30009143C16570470000800000205021484336
:103D400005494018C16D012252059143C165C16FFB
:103D500012029143C1677047800000205021484300
:103D600005494018C16D012252051143C165C16F5B
:103D700012021143C1677047800000205021484360
:103D8000014940180068704700010020502250434C
:103D9000084A80188268120C0A708268120E4A70F3
:103DA000C2688A70C268120ACA70C0688002800E37
:103DB0000871704700010020502148430149401814
:103DC0007047000014010020502148430149401869
:103DD000704700001C010020502148430249401850
:103DE000C06D8002C00F7047800000205021484302
:103DF0000249401880688004800E7047000100204E
:103E00005021484302494018C06D0006C00F70475A
:103E1000800000205021484302494018C06D8004B2
:103E2000800E70478000002050225043064A8018C0
:103E3000826F120A0A60C36F1B0613430B60C06FC8
:103E40000004000E48607047800000205021484365
:103E500002494018C06D4000400F704780000020AC
:103E60005021484302494018C06D4001400F70473F
:103E70008000002050214843024940188068C00655
:103E8000C00E70470001002010B5044650200649BE
:103E9000604340185022002118F078FF012120468D
:103EA000FFF73CFF10BD0000DC0000205022504313
:103EB000024A80180268016070470000000100207B
:103EC00010B54A780B7812021A4350235843094B15
:103ED000C418A068120480B21043A060881CFEF7CA
:103EE00071FBE1688002890D8905800A0143E16068
:103EF00010BD00000001002050225043044A8018E9
:103F000042680902120E1206090A0A43426070470B
:103F10000001002050225043044A801842681202D7
:103F2000120A09060A43426070470000000100209F
:103F300050225043054A801882683F231B0289069D
:103F40009A43890C0A4382607047000000010020F8
:103F500050225043054A8018C26D3F231B02890638
:103F60009A43890C0A43C265704700008000002014
:103F700010B55022084C424312190B68946F1B0273
:103F8000E4B21C4394674A6809681202090E11439F
:103F90000CF074FA10BD0000800000205021054A8A
:103FA00010B541438918C96F921389B211430CF0BF
:103FB00065FA10BD80000020502148430349401895
:103FC000C16D80229143C1657047000080000020D0
:103FD00050225043024A8018426E416670470000EA
:103FE0008000002050225043054A8018C26D0723EC
:103FF0001B0749079A4349080A43C26570470000F6
:104000008000002010B55022044C424312190B6866
:10401000546F536749680CF03FFA10BD80000020D0
:104020005021054A10B541438918896F8022C9B2D1
:1040300011430CF031FA10BD80000020502148439C
:1040400003494018C16D80221143C16570470000CB
:104050008000002050225043024A8018026E016600
:10406000704700008000002050225043054A80180D
:10407000C26D07231B0649079A4349090A43C265D3
:10408000704700008000002050225043044A8018EE
:104090008268C90652095201C90E0A4382607047FC
:1040A0000001002050225043044A8018C26D890646
:1040B00092099201890E0A43C26570478000002070
:1040C0005021484303494018C16D0122D203514099
:1040D000C1657047800000200246002901D00849D0
:1040E00001E00749203900200B56934203DC401CB5
:1040F000C0B22028F8D3002801D0401EC0B27047BB
:104100004007071010B518F073FC0649002018F09E
:1041100059FC04490120103118F054FC02490148AF
:10412000086010BD40220020C80100207CB50D4C65
:10413000069D02280FD00C4E266001930B460146C7
:104140000095304618F01CFA002803D0022805D04C
:104150000120C0437CBD044E1036EDE70020C04373
:104160007CBD0000C80100204022002010B514468C
:1041700013460A4601460648006818F0E9FA002886
:1041800001D001DA204610BD0220C04310BD00005E
:10419000C801002010B5022805D0032802D1002054
:1041A00018F09AFB10BD0448044900688842F9D011
:1041B00018F02CFB10BD0000C80100205022002088
:1041C000FFB583B00F46184C0C9D0146022F08D056
:1041D00016482060002002AE022907D000290DD029
:1041E0000FE01248103020600120F4E700962B46C3
:1041F000069A0599206818F023FC0AE0216818F057
:10420000E1FB019600953946069B059A206818F057
:104210002BFC002803D0042803D00120C04307B0A2
:10422000F0BD0220C043FAE7C80100204022002070
:10423000002901D0044901E003492039202801D395
:104240007F20704708567047400707102722D24347
:10425000027006200870704710B507F041FB10BDD2
:1042600010B5FEF73FFF10BD7FB5044616460D465C
:10427000684607F0D3F968460378237040782870C1
:104280006846807830707FBD7047000008B50448EC
:10429000416B012211434163406B009008BD000057
:1042A0004000006070470000FEB50446C07A00255B
:1042B00080280CD8608B172809D3012189028842F5
:1042C00005D8E089172802D3091F884201D9822521
:1042D00030E020222146184818F054FD2BF0DAFB7C
:1042E00015494968814201D5872523E01BF0A8FDC7
:1042F00022F050FE6168401A019000281ADD022069
:10430000009001A802900D48FF27006804260123B1
:104310000D22806900991CF0BBFD04000AD02771B2
:1043200066713246A01D029918F02CFD21460098B6
:104330001CF09AFD2846FEBDF4220020E402002075
:10434000F0B53E4C83B02060FFF72FFC3C4E0028B8
:104350000ED03C49486A0090886A0190019B009801
:104360001B06C0B232681B0C1843D060C86A1061CB
:1043700035490020096888702068FFF7FFFB002896
:1043800030D02068FFF715FC07F00CFB07461BF048
:1043900097F905460146384617F0A8FC00280AD0D0
:1043A0000121781B4903884205D201213068E822A7
:1043B0001154056003E031680020E031087217F005
:1043C000CEFB0546FF280DD017F0E2FB002809D0F0
:1043D000284617F0BFFB0646284617F0C5FB0146E6
:1043E000304688472068FFF7D5FB002801D0042419
:1043F00013E02068FFF7B8FB002801D001240CE08F
:104400002068FFF7B5FB002801D0022405E02068F2
:10441000FFF7A4FB00280FD0002407F09BFA17F049
:104420009EFBFF2808D0094901220968A2400B68B9
:1044300013430B6017F000F903B0F0BDDC0200205D
:10444000E002002080160060D4020020E402002078
:10445000034909684A690260087E00097047000044
:10446000E00200200649002049680A7889788A43DA
:1044700005D104490968C97A002900D10320704791
:10448000D0020020E002002010B50B480068203068
:10449000007BC00706D023F063F800F0F5FD01F0C3
:1044A0008FFD10BD09F01EFA01F0ACFF03F04CFCCB
:1044B0001AF0B4F9F1E70000D002002010B503248F
:1044C0006407E069616861600843FFF739FF07F03E
:1044D00035FB04490A884868904201D0401C486076
:1044E000606810BD8401002010B507F0C9FC10BD44
:1044F00004480178002903D0002141700120704751
:10450000002070475C0A002010B5044C2478012C70
:1045100001D0002010BD18F0DBFE10BD6C0A002099
:10452000054A002801D0938A0380002901D0106930
:1045300008609068704700006C0A002010B5094BB5
:104540001C78002C01D00C2010BD002A08D00222BB
:104550001A705880998000209860D860186110BD4A
:104560000122F5E76C0A002004480178002903D0F5
:1045700000210170084670470C2070476C0A00202B
:10458000FFB5144C07462078BFB01546002802D06E
:104590000C2043B0F0BDF82101A8FEF711F8002669
:1045A000E66001A80090681C019681B23246384648
:1045B000429B1FF091FC0028EBD167804098A080BF
:1045C000E580429820810120E06020706670002024
:1045D000DFE700005C0A00200148C0687047000067
:1045E0005C0A002004480178002903D000210170F2
:1045F000084670470C2070475C0A0020F7B5124C43
:1046000007462078BEB00E46002802D00C2041B0EC
:10461000F0BDF8216846FDF7D3FF0025E5606B4645
:10462000009531463846409A1EF0FEFE0028EED135
:104630006780E680409820810120E06002202070A1
:1046400065700020E3E700005C0A002030B5144DDF
:10465000BFB06878002818D12878012813D0022824
:1046600013D16C46F8212046FDF7AAFFE8680090B8
:104670002A89E98868886B461EF0D6FE002806D095
:10468000882808D009E01AF0B7FE3FB030BD206896
:10469000401C2060ECE7012068702068E860F4E7C7
:1046A0005C0A002010B5044C2478022C01D00020B4
:1046B00010BD18F00DFE10BD6C0A002010B50320CF
:1046C000FFF768FD002010BD08B500210B460091E2
:1046D000014626220220FFF729FD002800D0812074
:1046E00008BD08B50346262100200091024602219C
:1046F000FFF766FDC01C01D0002008BD812008BD69
:10470000F0B585B006466846154606711C460F464C
:104710000622401D18F036FB01AA3946304600F04B
:1047200026F8002802D0B32005B0F0BD0398216818
:10473000884201D98720F7E7206003982B4680B292
:1047400000900C2201210220FFF73AFD0028EBD057
:104750008120E9E70EB56A4600F009F8002801D08B
:10476000B3200EBD0220FFF715FD00200EBDF7B5EA
:10477000002782B0144605460C262346002201215C
:1047800038460096FFF71CFDC11C0BD001270622FE
:10479000611C039818F0F2FA0028EED12078A842A4
:1047A000EBD1002005B0F0BDF0B587B017461C4630
:1047B0000E46054601AAFFF7DAFF00280CD1039840
:1047C000A04206D1A2B239460C20FFF7CFFC002848
:1047D0001BD00220FFF7DEFC684605710622314639
:1047E000401D18F0CFFAA0B200903B460C2201A960
:1047F00003940120FFF79AFC040005D08125601C7A
:1048000005D0A01C03D003E0002007B0F0BDB42504
:104810000622314604A818F0B5FA6846847504AB40
:104820000722042142201FF0EBFF2846EDE70FB4DA
:1048300070B596B029A80022023002AB1146064698
:1048400000F098F8002852D1502202A91AA818F0B6
:1048500095FA00285FD00220FFF79CFC18A8C17AC7
:104860006846C07A814242D118A8407AC0060ED468
:104870006846407AC0060AD5022213A92BA818F070
:1048800081FA18A9487A1021084318A9487218A873
:10489000407A800616D46846407A800612D509A967
:1048A00021A810220231023018F06CFA11A9062258
:1048B0000231304618F066FA18A9487A20210843D8
:1048C00018A9487218A8407A400610D46846407A61
:1048D00040060CD50DA925A810220231023018F08F
:1048E00051FA18A9487A4021084318A9487218A813
:1048F000407A00090FD00020034650221AA90090E8
:10490000FFF714FC040005D08125601C08D0A01C12
:1049100006D006E0002016B070BC08BC04B01847F2
:10492000B42506223146684618F02CFA6846847190
:104930006B460722052142201FF062FF2846EAE766
:1049400038B550210091074C0346002211462078CB
:10495000FFF736FCC01C03D001202070002038BDBA
:10496000B32038BDFC0200200149002008707047C8
:10497000FC020020FFB5002583B01C4616460F46FA
:10498000002A07D0012F05D103984079800901281A
:1049900000D1012512490020087020461E300190E8
:1049A0002030009014E0002D04D0019903981AF0F3
:1049B000C3FC0BE0002E04D16078C007C00FB842E2
:1049C00006D106220399009818F0D8F9002805D0DE
:1049D0002046FFF7B5FF0028E5D0B32007B0F0BDB3
:1049E000FC020020F8B500242546264600231A467E
:1049F000194628460096FFF7E3FB0125C01C02D0AC
:104A0000641CE4B2F2E72046F8BD10B50C4694B041
:104A100001466B4601222046FFF7ACFF040002D19D
:104A20000220FFF7B7FB204614B010BD3EB536227A
:104A30000121154822F09CFA144C154920600246C9
:104A4000C97A203211750021017041708170E12313
:104A5000C37080230371022343713020107251729E
:104A600002AA01A96846FFF7FFFB69460878097AA0
:104A700000010902C01C084369460979090308437B
:104A8000216848853EBD0000F0020020D0020020D1
:104A9000F422002010B507F0D1F910BD10B50028A0
:104AA00003D0002A01D00B2B01D9822010BD04466F
:104AB000037008344170036A5954491EFBD5A26043
:104AC00060610020207310BDFFB585B00D46040065
:104AD0000BD060780290854207D221780520000330
:104AE000002788401E46834202D9822009B0F0BDCB
:104AF0001AF000FE7200921913019A18130A49075E
:104B0000C0089A180843130C21789A181018491DE8
:104B1000C840694608800197206A0799405DA8420D
:104B200009D0002904D02946204600F041F806E0CB
:104B30008221019101E0002901D1A84236D16846C5
:104B4000616A00886A00885268460021415E0391CC
:104B50001AF0D0FD86466378206A1A468446805C47
:104B600013E0666A4700F75B26787146761DF140D0
:104B7000CE08B91B0FB203997F1E8E1B36B2761E6C
:104B8000B74204DC02466146885C9842E9D160463F
:104B9000815C4155206A85540298824206D168465C
:104BA0000021415E20461AF071FF019001989DE7B7
:104BB000F8B5054600200C468646002D03D06B78DC
:104BC0001846844201D38220F8BD2E6A315D8C469E
:104BD000A14216D02746024602E0B94203D00A4657
:104BE000B15C8142F9D1B05C984208D06046B054C3
:104BF0009A4204D1614628461AF06CFF8646286A1C
:104C000004557046F8BD0000FFB5154881B087888F
:104C10000A9D14460E46BC4202D1002005B0F0BDEC
:104C20001048042201196846FDF709FC002D10D137
:104C30006846C178019881420BD1062E03D06846A0
:104C40008078B04205D10498002800D0048001206B
:104C5000E4E768460088001984B20025DBE700001D
:104C6000C201002040210020024881884088081AA3
:104C700080B27047C201002070B50C46094D014654
:104C8000A888FF220132121AA24201DA002070BD68
:104C9000054A10182246FDF7D2FBA8880019A88003
:104CA000012070BDC20100204021002070B50646E1
:104CB000FFF7DAFF0446FF200130011BB14201DAA1
:104CC000002070BD074DA988401AB04208DA064896
:104CD000698822464118FDF716FC00206880AC80E8
:104CE000012070BDC201002040210020034A80083D
:104CF00051431B22504308182530704734230000CD
:104D0000F1B55C4B5C499D446944086E14214843ED
:104D10005A49002640180790408900280DD00020ED
:104D20000346009056480621428853486844006E66
:104D3000FFF76AFF002804D009204F4B64339D44DD
:104D4000F0BD2020FFF7B2FF00287DD04A4813A90C
:104D50006844006E17F036FE11A8149D07F020FA83
:104D60001198129913AA029101901BCA03AA1BC29F
:104D700011A8009010AB404A17A913A817F06FF8BC
:104D80000446042801D0002CD7D110A800883A4945
:104D9000884201D0002CE3D0002816D00121FFF773
:104DA000A5FFEFF3108772B617F036FF002825D065
:104DB00010A8028817A928461AF0E0FF87F3108888
:104DC0000126F0022D18002CCAD02B491598491E37
:104DD000401E0843401B401CC00A08A90876012059
:104DE00080042818C00A08770EA90FA801F0C0F89F
:104DF000072835D0079817F021FF9EE787F3108822
:104E0000002E29D003AC0FCC08AC0FC40198029936
:104E100003C42020FFF74AFF00281FD020206C4643
:104E200020800320A07008AE0FCE01AE2FC6062250
:104E30000CA906A8FDF7F4F920216846FFF71CFF2E
:104E400008AC0122217800E008E0142041430B481F
:104E500008188273002070E707206EE708206CE7CF
:104E600008A8027E017F04486844006E1AF07AFAAE
:104E700063E70000A0F7FFFF0008000018210020F2
:104E8000C2010020F0B5414B00269D440446374640
:104E900035461BE00C20A1686843085C14213C4A9D
:104EA000414389184989002900D0012700210B4678
:104EB000009138494A880621FFF7A6FE002804D051
:104EC0000920324B5B429D44F0BD6D1C2079A84205
:104ED000E0DC002F15D00121FF22C90201A8FDF757
:104EE00048FB002523E029460C22A0685143425C80
:104EF000091D475828491046694417F063FD0028EA
:104F000001D00020DDE72548684407F049F923482F
:104F1000234B684400900120C002C01B82B26B4446
:104F200001A91846C919183816F099FF6D1C207987
:104F3000A842D8DC0121CF023846FFF7D7FEEFF3B5
:104F4000108572B617F068FE002809D03A4601A90C
:104F500020681AF013FF85F3108800250C4F10E02D
:104F600085F310880720ACE70C20A1686843085C33
:104F700014214843C01917F061FE002800D00646EE
:104F80006D1C2079A842EFDC30469AE7DCF7FFFF82
:104F900018210020C20100200408000014080000AD
:104FA0001C080000F0B5354B01270446FF029D4464
:104FB00018300690E169A06901900291201D0FC888
:104FC00007AD0FC50698009005AB3A460BA9201D0A
:104FD00016F045FF05466946888AB84201D0002D83
:104FE000E8D0002816D00021FFF780FEEFF31086EE
:104FF00072B617F011FE00282CD069468A8A0BA9D8
:1050000060691AF0BBFE86F310886069C0196061A0
:10501000002DCFD0E1681A48491E014360696A46F5
:10502000091A491CC90A1173012189044018C00AD0
:10503000107403A904A800F09BFF0728207916D05C
:10504000142148430F49401817F0F8FD0C4B2D333D
:105050009D44F0BD86F3108807AD0FCD241D0FC40D
:10506000062201A90698FDF7DBF80720EEE76B465C
:105070001A7B197C1AF076F9E8E70000D4F7FFFFF5
:10508000FF0700001821002070B572B611481022E9
:10509000006881781143817062B615F0C5FF09F090
:1050A00087FA21F075FE09F08FF900240A4D0CE013
:1050B00020460EF0EAFE002802D020460EF0E5FE63
:1050C00020460EF0FFFD641CE4B2E87AA042EFD85F
:1050D00070BD0000D4020020F4220020F0B58DB095
:1050E000012009F0EBFA01A809F0DAFC00241020F5
:1050F00008948026039005940D200696B7010A9027
:105100000494079401AA01210B971E4809F086FC1C
:105110001C486C38416F0222114341671A4DA86840
:105120003043A860012111201AF08AFF11201AF0E3
:1051300063FF202004A9039451C10C200A90079416
:1051400001AA02210B9708940E4809F067FCA86891
:1051500040210843A8600A0102210A4809F094FC92
:10516000012128460CF0A8FA0246084B0221054806
:10517000009409F033FC0221024809F043FC0DB011
:10518000F0BD00000000704800400041AC0E00205F
:1051900010B5094801688907C90F0CD00221416088
:1051A00006490020087004486C38416F49084900DE
:1051B000416720F0B7FF10BD00007048A10100203A
:1051C000F8B50D4604461420114960434018416F5C
:1051D000164649084900416700210E480CF06CFA58
:1051E0002A4603460A4D1020803500902146284665
:1051F00009F0F4FB32462146284609F045FC2146D9
:10520000284609F0FFFB2146284609F0FBFBF8BDC4
:1052100080FF6F4800400041F0B50746FF2187B08E
:10522000002401222D312F481AF008FA10262E4DA5
:10523000002F02D0FF2F1CD0FEE72C480322816AEA
:10524000120391438162C16A9143C1620120C0038C
:105250000BF080F928683043286005E01AF006FA60
:10526000002801D0022417E028688006C00FF5D07E
:1052700012E0012000040BF06DF9286804210843B6
:10528000286005E01AF0F2F9002801D0032403E0B9
:1052900028680007C00FF5D00022114610461AF00A
:1052A000CDF91348417B012915D14078002815D04C
:1052B00048060BF0FFF8684609F060FE02200190F6
:1052C0000290002000960390049005900920694602
:1052D000C00609F0C2FD204607B0F0BD032000065D
:1052E000E7E700000024F4000000404800005048B8
:1052F0004C0A0020F8B50546002634460122C82194
:105300004C481AF09BF905E01AF0B0F9002801D0DA
:10531000012604E0484840694007C00FF4D000224D
:10532000114610461AF08AF9002E01D03046F8BD19
:10533000FF2D06D0002D0AD0022D0AD0012D0FD04E
:10534000FEE720200AF0CEFF0120000305E0102038
:1053500000E000200AF0C6FF00200BF023F900E077
:105360000124364B986B3649884211D1586A02079E
:10537000586A120F4006410F586A5D6A0005000F17
:105380002D042D0F00955B6A9B029F0E012304E004
:10539000082203211E27104600232A4DBC46EE6832
:1053A0003F273F06BE4367463F063E43EE60EE683A
:1053B0000127FF053E43EE601E26002B09D0009B0F
:1053C000EF685B00B7431F43EF60EB6801273B4387
:1053D000EB60194B80335D694000B54305435D6167
:1053E000586901252843586158690F25AD01A84324
:1053F000920110435861586920221043586158693E
:105400000722D2029043C902084358615869012219
:1054100092021043586108489110C3698B430B43B3
:10542000C361002C03D0C16991431143C1610020C5
:10543000F8BD00000024F40000005048C01E001019
:10544000CCECBCFC0000404870B58AB02022284952
:1054500002A8FCF7E5FE2748FDF7B4F82649884284
:1054600001D90020C043234E0690093EF079B1795E
:10547000000208432149884201D1FF20F5306946E6
:1054800088837078002802D001251D4C01E000259A
:105490002C4602A8FEF708FF002800D0FEE7FEF722
:1054A000D1FA707931790002084319214901884203
:1054B00000D30846694608808D706846019406F05E
:1054C00075FAFEF71FFE17F065FC401C04D018F0BB
:1054D00027FC002801D0FEE7FEE7FDF73FFE012193
:1054E0000720084A49024002FDF700FB0AB070BDE0
:1054F00030000710550A0020B0031900FFFF00001C
:10550000102700004859002038B525480821426876
:105510000A239A430A434260808A22490004800B8E
:1055200041180E222048FCF78AFF204AD1686020EB
:1055300081430143D1601F491D4888601E490861AD
:105540001E49E0204A6802434A60174CA078FFF7E2
:10555000D1FE6078FFF760FE012016F01FFF207873
:10556000402800D320200AF0E7FF10493020803186
:105570008A6970239A4302438A610021012019F04D
:1055800069FF27F04BFF05210848090440300269F4
:105590000A43026100690840009062B638BD00000D
:1055A0000010004004F903104C0A0020000040489D
:1055B0000020041000ED00E004000020000050482E
:1055C00038B5890612D504460CF0A0FD828B6946D9
:1055D0000A80C08B4880E08E00990BF021FA3A28AF
:1055E00004D08034206820218843206038BD10B565
:1055F000FFF7E6FF10BD0000FFB5E7480E4689B093
:10560000457E817D0291C17D0791C17A0191007E25
:1056100008901746F021012021F0A0FCDF4CFF216B
:105620002060E931012021F099FC216880318862F5
:105630001C21012021F092FC21688031896AFF3110
:10564000813108654021012021F088FC21688031EA
:10565000896AFF318131096D0860FF211D31019890
:1056600021F07CFC21688031896AFF318131096D2C
:10567000486004210B2021F071FC21688031896A87
:10568000FF318131096D08613821019821F066FCF4
:1056900021688031896AFF318131096D8860382144
:1056A000019821F05BFC21688031896AFF318131EA
:1056B000096D012EC8600AD10E21019821F04EFC1F
:1056C00021688031896AFF318131096D4861139801
:1056D000012832D1B04EB07F00280AD0042121F039
:1056E0003DFC21688031896AFF318131096D09688B
:1056F00088610C21019821F031FC21688031896A90
:10570000FF318131096D8861717F002915D0002634
:1057100010E0A1480121407F21F020FC21680C22EB
:105720008031896A7243FF318131096D761C896944
:10573000F6B2885001988642EBD3129812F02CFAF8
:1057400006460146019821F009FC944C21688031FD
:1057500008623146019821F001FC216880314862DD
:105760002C21019821F0FAFB216880310863099906
:10577000E02039430E4641430120443121F0EEFB45
:105780002168803188613146D820414301202C3185
:1057900021F0E4FB21688031C8611021012021F053
:1057A000DDFB21688031C8620421012021F0D6FB95
:1057B0002168803148633421012021F0CFFB21682A
:1057C0008031886312F0A0F8FF21041D1131002FF1
:1057D0007ED0029821F0C2FB06902421012021F006
:1057E000BDFBA0622421012021F0B8FBE06224214E
:1057F000012021F0B3FB20632821012021F0AEFB22
:1058000060632821012021F0A9FBA0632C21012045
:1058100021F0A4FB0026E06307E04421012021F0F1
:105820009DFBB100761C6050F6B207988642F4D317
:1058300000942146224628313432E36B18F0C4FB31
:105840000022002F04D05C21029821F087FB024641
:105850000699029800F06CF91298082400282FD0BD
:10586000002F2DD00299B0204143012021F076FB7A
:105870000146029812F08FFD1421012021F06EFBE9
:105880000790B821089821F069FB21460690A940AD
:10589000012021F063FB07460C21012021F05EFB73
:1058A00006461821019821F059FB019901960291B1
:1058B00003902B460097069A0799089813F0B4FABC
:1058C0002146A9400C46012021F048FB064600E095
:1058D00026E02146012021F041FB07460C980028D4
:1058E00037D02146012021F039FB1021A940069034
:1058F0000C46012021F032FB03902146012021F0CB
:105900002DFB04462821A940012021F027FB04900B
:10591000681C0399C2B2009601A892C0069B21E0C0
:10592000012021F01BFB06902421012021F016FB11
:10593000A0622821012021F011FB60630020224693
:105940002146034634322831009018F03DFB0022F6
:105950007EE70020019002900490681C0397009657
:10596000C2B200232946084614F000FB0A4C01226B
:10597000E17A0B48491C21F0FBFA084D0222296804
:1059800080310866E17A064821F0F2FA2968803110
:1059900048660DB0F0BD0000F4220020E0020020B7
:1059A000F002002070B504220121144821F0E0FA31
:1059B000134C102220600121104821F0D9FA2168EF
:1059C0000C22086001210D4821F0D2FA21680D4D0A
:1059D00009682822C860A989084821F0C9FA216805
:1059E00004220968C9688860A9890448491C21F013
:1059F000BFFA21680968C968486070BDF0020020DC
:105A0000F4020020F42200200022032804D00228FF
:105A100006D001280BD008E007484143074803E0BF
:105A2000FF20A430414306480A18100A7047054871
:105A300041430548F8E70000381A0000E926010054
:105A40000612000047030000C6200000F8B511F060
:105A50005BFF06460025FF360746C13658E0FF20AB
:105A60001130396868430C182046E0300090807887
:105A7000FF284BD00098C279D0072DD02046803027
:105A80000268C1691160016A006841600098C079CC
:105A900002280FD3204800688030806AFF306130D0
:105AA000007A00280FD080202146005900228C3136
:105AB00015F038FB184800688030806AFF3061308C
:105AC000007A01280FD0204680300268C1689160BA
:105AD00001690068C16013E0104801688020005926
:105AE0001AF056F8D2E7204680300268C16891600B
:105AF00002680169D16000680021083015F080FB60
:105B000020468030E16F0268E26701606D1CEDB2F3
:105B1000307DA842A3D8F8BDE0020020D0020020CA
:105B200010B52521401DFCF799FD084610BD000069
:105B3000F7B50C46054611F0E7FE0146FF31C131CD
:105B400001220D754A7500268C463546046029E011
:105B5000FF2111310268714351180A46FF23E032D8
:105B60009370D37000230C46DB43C034E38115707F
:105B70000B46557080330127DD61FF045F609F6035
:105B80001D6225750723E374D571FF235372029AB2
:105B9000002A05D05C22029B7243D2188A655565A3
:105BA000761CF6B26146097DB142D1D80A48094A4D
:105BB00000688030816AFF318131CA61816A074A99
:105BC000FF3181314A61806A0549FF30813081614E
:105BD000FEBD000075D20510E002002041A40510B2
:105BE0004D5A0410F8B504462546E035FF202746F7
:105BF0006872C037387AC00704D00DF02FFF687282
:105C0000FF2866D016F004F8A870FF28387A62D012
:105C1000C00604D415F0FCFFE870FF2862D02046CF
:105C20005C30E0671030264680363060E879C00787
:105C300062D0E06FF1690160E06F316A4160E06F4E
:105C4000F1688160E06F3169C160E87902280AD3A8
:105C5000214600228C31E06F15F064FAE06F0021DC
:105C6000083015F0CDFAE06F316880688860E06F29
:105C7000316800680860E06F3168C068C860E06F34
:105C8000316840684860706A002804D005F08AFED8
:105C9000716A4018706201202870F87C19F093FF37
:105CA0006871012000902346797DA878143322463C
:105CB0000EF0CAFCA8782721FEF74AF9A87825211A
:105CC000FEF728F9387AC00620461CD40FF0EEFC07
:105CD0001BE00C20F8BDC00702D0687A0DF006FD6D
:105CE0000720F8BD387AC00702D0687A0DF0FEFCB4
:105CF000A87815F080FFF3E70B4800220168E06FF9
:105D000019F046FF9BE70FF0D5FCA878F16A15F073
:105D1000A3FFF06A15F060FF012802D0A87815F003
:105D20008BFC0020F8BD0000D002002010B572B638
:105D30000446E034A07815F095FFE07815F092FF66
:105D400062B6A07815F024FC002020706070607AA4
:105D5000FF2801D00DF0CAFCFF20607210BD10B505
:105D60000446E034E07815F07DFFA07815F07AFF66
:105D7000002020706070607AFF2801D00DF0B6FC22
:105D8000FF20607210BDFEB51446064600200A468C
:105D9000C0320D460090002E0BD0042020700192DE
:105DA000107A2F4640074037002816DB002E10D00F
:105DB00015E0138900205F0701D50120EEE79F075A
:105DC000BF0F022F03D09B07E8D10220E6E7062091
:105DD000E4E7288F801D60700BE0002E3FD0387CF8
:105DE000801D6070E96F204606220830093116F0E8
:105DF000C9FFE96F0622A01C491C16F0C3FF2078DA
:105E00002F2108402070E96F0978C90729D00121A6
:105E10000091890108432070E96F097AC90108439C
:105E2000207020F0D7FF2178400108432070002E19
:105E300019D03F8A296C01980089420701D5002EAC
:105E400014D00825400701D5002E10D060193A461D
:105E500016F098FFE819801E60700020FEBD0C202F
:105E6000BFE70099D5E72F8FA96AE4E70E25AD1E9D
:105E70006570F2E7F0B5002689B0944637460428ED
:105E80000AD0092808D0C8220C46555C28340628B8
:105E900007D0082805D006E00C4638340126002536
:105EA00001E00C46403407AA0392059406AA00922A
:105EB00002970495019662460FF019F909B0F0BDFA
:105EC000F3B5274B0D469D440121FF22C90201A8CD
:105ED000FCF74FFB002423E020460C225043A96826
:105EE0000646885D1F496944496A884217D01E49A1
:105EF000694416F067FDA8681C4F361D86596F442B
:105F0000384606F04DF917483B46801B82B201A87F
:105F10008119083318461838009715F0A0FF641C43
:105F20002879A042D8DC0121CE023046FEF7DEFE01
:105F3000EFF3108472B616F06FFE00280BD03246D5
:105F400001A9286819F01AFF84F310880020074B74
:105F500018339D44F0BD84F310880720F7E7000054
:105F6000DCF7FFFF00080000040800001408000030
:105F700070B50C46054618E001210020FEF7B6FE7C
:105F8000EFF3108672B616F047FE002811D02A787B
:105F900001230021094808F025FF86F3108828789E
:105FA000401C28702078401E207020780028E3D103
:105FB00070BD86F31088072070BD000000100040FF
:105FC000FEB572B64248082200688178114381709C
:105FD00062B600203F4E6C4631688200521812694A
:105FE00052884300401CC0B2E2520328F5D372B677
:105FF00000200D68086062B6E80702D0002021F09A
:10600000C3FBA80702D5012021F0BEFB680702D51B
:10601000022021F0B9FB280702D5032021F0B4FBB0
:10602000E80602D5042021F0AFFB00251FE00F2871
:1060300018D2211D284A8000125820469047002877
:1060400010D072B62248F722006881781140817022
:1060500062B62AE04D2805D2211D82001F488258D1
:10606000204690473068218838180069018069000F
:106070006846415A3068AF003818006902889208B3
:1060800092001418028808348A420ED0A1788A0738
:106090000BD08907890F012901D104460834A07863
:1060A0008008C006E078D5D5C1E772B630683818E8
:1060B0000069418802888A4202D100210180418022
:1060C00062B66D1CEDB2032DD1D321F0FDF9FEBDFA
:1060D000D4020020E4020020E80A0710B4090710E7
:1060E00010B51C2201211B4820F042FF1A4C04224B
:1060F00020604321174820F03BFF216804224860BC
:10610000C321144820F034FF216804228860FF2155
:106110000431104820F02CFF2168C86021F0EEF90E
:1061200020684021406821F071F821680861886882
:10613000C02121F06BF821684861C868FF21013156
:1061400021F064F80146206804228161002116F0E4
:106150001DFE10BDF0020020E40200207047000088
:1061600038B51048002104680846283400F07CFC4B
:10617000694648702034E07CC10704D001216A469A
:1061800011708843E074C0B2810705D502216A46C8
:106190001170FD210840E074694602201BF0E0FC0C
:1061A00038BD0000D802002010B5FFF7D9FF10BDA0
:1061B000FFB587B00F46002069460873464816466B
:1061C00005682835012A1DD805F078FF002805D17B
:1061D0002C462034A07C002802D085200BB0F0BDD6
:1061E00003A8079900F00DFA0028F7D1607D6946F1
:1061F0003043607507200875012F05D0022F09D0A4
:10620000002F12D08220E9E7087B1021084369465D
:1062100008730AE0087B202108436946087305A932
:1062200003A800F009FC0028D8D100260096684693
:1062300001960178DF20014368460170417809200A
:1062400001436846082241708270022F03D1062064
:1062500001436846417020F09FFF01280AD168463B
:10626000417812200143684641708178072001433C
:106270006846817026F0FEFF01280AD16846417801
:10628000E0200143684641708178802001436846E0
:106290008170684624F054FBFF216846017041700C
:1062A0008170C17001719F21417186712021C1717E
:1062B00025F0C8FE2846363000F06CFE00288DD14F
:1062C0006846007B8106890F03D0617D022211435D
:1062D0006175A074002081E7D80200207CB51348C6
:1062E0000668283620F058FF002803D01048002404
:1062F000857D17E0012500242046142250430246E4
:10630000F16A12328A5C012A0AD1801C085C80077B
:1063100006D5684604706A460121002000F0F4FDAD
:10632000641CE4B2AC42E7D37CBD0000D80200207C
:10633000F4220020F0B5304885B005680026684694
:10634000067201200146049068462C4601734834C9
:10635000E07C28353746002806D00127800601D585
:10636000012601E00020049003A902A800F0FCF837
:10637000074315D00498002818D06846007B0028F1
:1063800014D01E4F684618F0AEFF002E03D02978B7
:10639000002000F069FB6846007A012808D00AE076
:1063A000607D02210843607505B0F0BD144F1BE00D
:1063B000002001F069F8684600F0ECFD002E03D0E3
:1063C0002978012000F050FB6846007A012801D1AD
:1063D00001F05AF82846062269463C3016F0D2FCF5
:1063E000607DFD2108406075034801223B4611464F
:1063F0000068FEF769FBD7E7D8020020A0BB0D00BC
:1064000030750000F8B52A48002504682E46283467
:1064100020F0C2FE002803D02648827D002019E02B
:1064200001220020E36A1427014679439C46891C17
:106430005B5C1F060CD59B0705D56D1C00266346CB
:106440005E54EDB20126E36A5F5C7F067F0E5F5407
:10645000401CC0B29042E5D3012E1AD1012D18D1B3
:10646000134800210068FEF7A3FB134802250068CB
:106470004030807BC0070CD01048222200680023E7
:10648000806929461AF004FD010002D028461AF05E
:10649000EBFC2034E07C000608D5207D012805D1E6
:1064A00000F062FA002801D102202075F8BD00003A
:1064B000D8020020F4220020E0020020E4020020A4
:1064C00010B508F04BFB10BD70B504460E46002019
:1064D00088B01546E10705D01146304621F059FA3B
:1064E000002816D1A10714D56A462946304617F070
:1064F00001FE002804D010220021684616F046FC58
:1065000004A817F00DFF04AB6A462946304621F077
:10651000FEF908B070BD10B5FFF7D6FF10BDFFB58E
:10652000002581B01E461746002902D0019800F0D0
:1065300025F9002410E0E000001B335C82191846A6
:10654000521C25F0C5FF050004D119460198FFF73C
:10655000E2FF0546641CE4B2BC4201D2002DEAD041
:10656000284605B0F0BD0000F3B5204881B00568AD
:106570000024283520F02EFF002802D01C48837DFF
:1065800000E001230020019A01211070029A0746C1
:10659000064611701BE014216143EA6A8C461231F1
:1065A000515C9646012910D1624671461332895CCE
:1065B00000290AD00120022900D101276246714634
:1065C000921C895C890700D50126641CE4B29C42B8
:1065D000E1D3012802D1019A01211170012F01D0CC
:1065E000012E02D1029A00211170FEBDD8020020B6
:1065F000F422002002780907090F0A4302700020E4
:10660000704710B5FFF7F6FF10BD000010B5104B36
:1066100004461B6800204833002C06D0012C09D00A
:10662000022C07D0032C10D10AE0997CC90700D1B5
:10663000852010BD997CC907FAD0002A05D110BD6C
:106640009A7C9207F4D5C907F9D0822010BD0000CA
:10665000D8020020F7B582B0002000901248002434
:106660000068C76AE000001BC6B2B81905460622DA
:10667000029916F083FB0006000E0ED1A97903984B
:1066800081420AD1012000900498002809D0B8194D
:106690000722002116F07AFB03E0641CE4B2042C0C
:1066A000E0D3009805B0F0BDD802002070B50246D6
:1066B00028480024807D884201D8822070BD264869
:1066C000002A0068406D02D01422514340184178DE
:1066D0008A06D30FCA060907D20FC90F002B02D0B2
:1066E000002A02D103E0002901D0002070BD0289F8
:1066F000466805783146104600F0CCFB17498842C1
:1067000004D030188078410709D50AE0002D1ED04A
:10671000012D04D0022D02D0032D0AD117E0D4247C
:1067200015E0002D07D0012D08D0022D0BD0032D30
:1067300001D012240BE08007F1D108E08007800F20
:106740000128ECD103E08007800F0228E7D1204622
:1067500070BD0000F4220020D8020020FFFF0000DE
:1067600010B504460020E10703D021F0B6FA002856
:1067700003D1A10701D521F091FA10BD10B5FFF7A3
:10678000EFFF10BD70B594B00646FFF7F7FF044663
:10679000FEF7EAF80FAD02350BE068464078C00717
:1067A00001D0012100E000212A463046FFF7B3FE68
:1067B00004466846FEF7C4F8002801D1002CECD04E
:1067C000204614B070BD0000FFB50646264885B0CF
:1067D00004680F462834254600F0A0F902900020F6
:1067E000203401902075B0090CD0E07CC006800FE9
:1067F00005D00021084600F037F900281ED1009787
:10680000019B03E0700707D501230097029A0799BF
:10681000089800F08BF81EE0F006800F21D0F006FB
:1068200004D56878012801D0032806D1300707D5A0
:106830006878002804D0022802D0D12009B0F0BD29
:1068400000F06CF9394600F06FFD0028F6D1297888
:10685000012000F009F90028F0D1E17C3143E17416
:10686000ECE71220EAE70000D802002010B5064944
:106870000246096885204831897C490702D51046BF
:106880000AF046FC10BD0000D8020020FFB5844687
:1068900024488E46026895B0114630311E9F0E91F5
:1068A0000F911046916B3C32283011921091416A41
:1068B0001291806A13901CA000681490087B002637
:1068C000012801D102200743002402A814A9095D70
:1068D000394218D0A30011A9CD580EA9C9583201C8
:1068E0000B888352131849885980298899806988B0
:1068F000D980A9881981E98859812989998169896B
:10690000761CD981F6B2641CE4B2032CDED301906C
:106910006346724600971799189822F08BF919B0C0
:10692000F0BD0000D80200200102040038B5049C2C
:106930000094FFF7ABFF38BD00B585B014220749BE
:106940006846FBF76DFC06486B460068054A6C30EC
:106950004088012103F0C6F805B000BDA00807106B
:10696000D8020020FFFF000010B5FFF7E5FF10BDC3
:1069700070B50D46064670220121214820F0F8FA34
:10698000204C012E206014D1062201211C4820F049
:10699000EFFA21680E2288630121194820F0E8FAF5
:1069A00021680E22C8640121154820F0E1FA21680F
:1069B0000865012D18D0216800201422C862012129
:1069C0000F4820F0D5FA21680122486504210C48BF
:1069D00020F0CEFA2168022208620321084820F044
:1069E000C7FA2168486270BD01221C21044820F0CA
:1069F000BFFA21681422C8620348817DE0E70000E5
:106A0000F0020020D8020020F422002070B50446D5
:106A1000E1200D46800009F0B5FA012009F0A8FF39
:106A2000002801D0862070BD2078202108432070E6
:106A300009202870002070BD10B5FFF7E7FF10BDDA
:106A400070B500220546134624F064F90446002D73
:106A500006D104481C220168C86A002116F096F984
:106A6000204670BDD802002010B5FFF7E9FF10BD29
:106A7000FEB5114E0025346827464837787D283406
:106A8000800717D5684618F02EFC684600F082FA99
:106A900005000FD12046062269463C3016F072F9F7
:106AA0000122064B11463068FEF70EF8787DFD2175
:106AB000084078752846FEBDD8020020A0BB0D0016
:106AC00070B503460F480024006801254830807CDB
:106AD0000A468006800F002804D00D70184600F08A
:106AE00039F807E000F01AF8002805D015701846AC
:106AF00000F03AF8204670BD00201070184600F0F3
:106B00001FF8F7E7D8020020034800684830407DAE
:106B1000C007C00F70470000D802002000B507482A
:106B200000684830807CC10601D5012000BD800688
:106B300001D5032000BDFFF7E7FF00BDD80200200C
:106B400010B503490622096816F01CF910BD0000B3
:106B5000D002002010B5034906220968643116F0FE
:106B600011F910BDD802002010B5034906220968AA
:106B70005E3116F007F910BDD80200207047000002
:106B8000034610B50B48026800204832D27C9406B8
:106B900001D5012010BDD406A40F03D0184600F083
:106BA00025F910BD1B242242FBD0184600F00AF93B
:106BB00010BD0000D8020020002809D10548142289
:106BC00000685143406D80224018817811438170E4
:106BD00070470000D802002010B5FFF7EDFF10BD90
:106BE00010B5002A03D0084600F0A7FB10BD00F046
:106BF00051F810BD10B5FFF7BBFE05480723034A47
:106C000003210068FDF74AFF10BD0000057406105F
:106C1000D802002070B50D4B1C682834462813D1CB
:106C20002034E07C00060FD5207D02280CD1802086
:106C300010700025C8B2557011461AF091FFE07C23
:106C40004006400EE074257570BD0000D80200209B
:106C500038B50F4A146823466C334834E27C150675
:106C600001D500280FD0DC2002400BD0684602700E
:106C700000214170694602201AF072FFE07C232156
:106C80000840E07438BD01202075598038BD0000EF
:106C9000D802002010B5FFF7DBFF10BDF0B50022D1
:106CA00087B00F46019211460092012F03D0017860
:106CB000042918D018E002880446100718D4E57D8E
:106CC000E01CA6690190A0780090D00605D40022AF
:106CD00000990198FFF7BEFC014600290BD0012561
:106CE000012F5DD06AE00122057AC668002A02D031
:106CF000012007B0F0BD324928460968002501226D
:106D0000283108E0B35C012B0AD0B318203BDB7FAD
:106D10009A18521C92B28242F4D3012F11D04DE046
:106D2000521C90B23322525CD30702D0305CC007B1
:106D300003E09207F1D5305C80070028EDD00125F3
:106D4000EBE7002D3AD02088C20637D44006800FEA
:106D5000012833D1019805900098049000200690F6
:106D60004F680546E800401BC6B200200290039021
:106D7000B819072202A916F001F80006000E05D086
:106D80006D1CEDB2042DEDD3069D17E0B819012559
:106D900006460622059915F0F5FF0498B07101E04A
:106DA00001290BD120784006810F02D0800F0228E4
:106DB00004D1012200990198FFF74CFC284698E77E
:106DC000D802002010B5FFF769FF10BD002200783F
:106DD000012906D0002806D0012804D0042802D0BA
:106DE00002E0C00700D001221046704710B5FFF73F
:106DF000EDFF10BD10B50C46417994B0490610D591
:106E00006A46012117F070F9002802D0D02014B092
:106E100010BD0FA906222046023115F0B3FF002055
:106E2000F5E78220F3E70000F3B5194900250C6867
:106E300081B0283481070DD06178002900D0D12598
:106E40000527FF02012801D0022600E00126002DBF
:106E500002D01BE020260027FFF760FE029900F019
:106E600063FA050012D121780120FFF7FDFD05002E
:106E70000CD12034E07C3043E074202E06D004484E
:106E80003B46012202210068FDF71EFE2846FEBD9A
:106E9000D802002030B503460948032B0CD300224A
:106EA0008C5C022C03D18D186D78012D05D0521CFD
:106EB000A21892B29A42F3D330BD104630BD000002
:106EC000FFFF0000FFB58BB01BA871C894468E462B
:106ED000149A19990A961A9F07AE31C60591179808
:106EE0000697039016991598189C009202910190AC
:106EF0000494624671460B9800F0A0F80FB0F0BD04
:106F000010B500F0F9F810BD10B500F015F910BD7E
:106F1000F8B50C46064620F058FA074620F050FA1D
:106F2000054620F057FA1049012C04D0022C05D058
:106F3000042C0AD015E008683C300CE0002D10D07D
:106F400000280ED00868C06C05E0002F09D000288A
:106F500007D00868006D0E22314615F013FF00209F
:106F6000F8BD8220F8BD0000D802002070B50646AA
:106F700000200446064D05E03146204623F035FB4F
:106F8000641CE4B2A97DA14201D90028F4D070BDEF
:106F9000F422002010B5FFF7E9FF10BD70B5234DB6
:106FA000034628680029446D02D014214A43A418DE
:106FB0002178012B1CD0A178890716D50021FDF777
:106FC000F7FD1B48022500684030807BC0070CD0CD
:106FD00018482222006800238069294619F058FFCA
:106FE000010002D0284619F03FFF0020A07070BDBC
:106FF000002300290ED0012902D002290AD105E080
:10700000A07802210843A0700B4B03E0A078042174
:107010000843A070A07861780843A070002BE6D0E8
:10702000012200212868FDF74FFD70BDD802002025
:10703000E0020020E402002020BF0200FFB5054668
:107040002B488DB006682B482836807D17468C4625
:10705000A84202D8822011B0F0BD2C46142044432F
:10706000F26A0021601C1154F90602D5F16A20224F
