:020000041004E6
:1000000000000120310A0410D9070410DB07041096
:10001000AA5555AA0000000010B50B004B4301681B
:100020005C00E418A14353430B43036010BD4368D5
:100030008B43514319434160704710B50B004B434C
:1000400081685C00E418A14353430B43836010BDF7
:1000500010B5090A0B004B434B434B43416A1C014B
:10006000E41AA14353430B43436210BDC648142214
:1000700051434018143801680122914301607047D0
:1000800000690840884201D1012070470020704774
:1000900081B0BE490A6802430A60096808400090BE
:1000A000009801B070477CB500F098FB8020C0003C
:1000B000B7490A6802430A6009680840009000983E
:1000C0000420FFF7E5FF9025ED058026B60002220B
:1000D00031002800FFF7A0FF022231002800FFF7BF
:1000E000ACFF002231002800FFF7A1FFA94C606897
:1000F000A94901406160206830432060002231003E
:100100002800FFF7A5FF7608022231002800FFF73C
:1001100083FF022231002800FFF78FFF0022310009
:100120002800FFF784FF60689C49014061602068F7
:1001300030432060002231002800FFF789FF984CEF
:100140001120E0602068974901402160964D606869
:100150002840606020680C2101432160934EA06814
:100160003040A060A06892490140A160A068C00032
:10017000C008A06020688021890501432160606873
:100180008C4901406160A0682A218843A0602068F2
:100190000121014321600120FFF77AFF9120C00572
:1001A00001681F2291430D220A43026076480168CC
:1001B000814A0A4010211143016001680D408021ED
:1001C000890129430160016820229143016001688F
:1001D000402291430160802102680A430260026864
:1001E000164006600268754B13400360A068014327
:1001F000A16073BDF4B584B007000C00704D686851
:1002000004218843686004980009019000264BE0AF
:100210000F202861300138188003000CA861207875
:10022000617809020143A07800040843E1780906D7
:1002300001432964201D0178427812020A43817823
:1002400009041143C27812060A436A64001D01784A
:10025000427812020A43817809041143C2781206D7
:100260000A43AA64001D0178427812020A43817889
:1002700009041143C27812060A43EA64041DCC2023
:10028000286001212800FFF7FBFE002805D104218A
:100290002800FFF7F5FE0028F3D004212800FFF71F
:1002A000EFFE00284ED1761C01988642B0D30001A3
:1002B0000499091A049101918907890F03D0019AC1
:1002C000121D511A01913818039000226E4601E068
:1002D000029A121D0198824236D200200499131806
:1002E0008B4201D2E35C00E0FF233354401C04281E
:1002F000F5DB049102920F202861039802994018BF
:100300008003000CA8613078717809020143B0784D
:1003100000040843F178090601432964332028606A
:1003200001212800FFF7ACFE002805D10421280098
:10033000FFF7A6FE0028F3D004212800FFF7A0FE57
:100340000028C5D0052000E0002005B0F0BD10B5A4
:100350001B4C0F2020618803000CA061112020603D
:1003600001212000FFF78CFE002805D10421200088
:10037000FFF786FE0028F3D004212000FFF780FE5F
:10038000002800D0072010BD0800704850004048E9
:100390005800404820005048FFFDFFFFFFFEFFFFD0
:1003A00000400041FFE9FFEFFFCFFFFFFFFCFFFF31
:1003B000FFFFFFF1FFB7FFFFEFBFFFFFFFF3FFFFFF
:1003C00000100040F0B5FFB08CB000216A461170FB
:1003D00011715171D180117211820591042111772F
:1003E000FF2107AA5170032191700121D1700021D2
:1003F000117107A9487106206946488101200871DA
:1004000030E0072069464881002069460870684648
:10041000007900281BD00598002818D101240594E4
:100420000121BB48FFF722FE07A8B9494861B94836
:100430000861C868000C0004694649890843B4494A
:10044000C860886804438C60002069460871B04821
:100450000168890706D5022141600021059101212B
:10046000FFF704FE6846007900281BD168464079F2
:10047000002817D00598002814D1A7480068000666
:10048000FBD5A54908688006C20FFAD10868400666
:10049000FCD5BFF34F8FA148A1490860BFF34F8F30
:1004A00000BFFDE76846037A018AC289808900E0BF
:1004B0000420994C2468A406E50F3FD0964CA4680C
:1004C000E4B21D0002D100256E46F5806D46ED8830
:1004D0006E1C6F46FE8049AE74551D0008D1012385
:1004E000012CE5D0812C01D10520E2E70023E0E7D3
:1004F000012B18D16C46E4888442DAD149AC2378C8
:1005000000210022012B01D1E27806E0812B10D1DD
:10051000E27823791B061B0C1A43130009D0FF2A2B
:10052000E4DC0223C5E7022BC3D1491C8CB2944200
:10053000BFD3002301246D462C70BAE76C462372AA
:100540006B4619826946CA8188816846007801280D
:1005500002D168464079002800D058E749A80178C0
:10056000012949A901D14C1C00E08C1C04211977F8
:100570000E2207AB5A7007AA91700121D9704278F8
:100580001A71837807AD6B71002507AEB5716E46A1
:100590003171FC2B00D004E1C07804280FDBE07837
:1005A000009025792D0205430095284665792D0494
:1005B000054300952846A5792D06054300951000B2
:1005C00021380928E6D802A52D5C6D00AF4400BF94
:1005D00005080D1521324493BC2C68464171E6E0B4
:1005E00007A805218170092122E007A80621817052
:1005F0004021C17100210172D9E000200090042245
:1006000069467148FFF7F6FD00280CD04A2007A97B
:10061000C5E06E480090042269466B48FFF7EAFD8A
:10062000002800D04A208CE007A805218170FF2116
:10063000C171BCE007ACF220A07100986449884207
:10064000F7D30098800506D100990220FFF77FFEBE
:10065000002800D1A071AAE0F12007A988710098B4
:100660005B498842F7D3E079217A0E0206430327DB
:100670000098032505400ED0401B009076190020FD
:1006800007E000990918097822000932431BD15468
:10069000401CA842F5DB3740032086430ED03200D1
:1006A00020000930694241180098FFF7A3FD002897
:1006B000D1D107A98871009880190090002F76D0B9
:1006C0000020874206D221000931721B1218009BBC
:1006D0001B788B54401C0428F3DB06950422284623
:1006E00041426018811909310098FFF783FD002805
:1006F00027D0F12025E000983549884220D3E179C0
:10070000207A00020843002107AAD41D11E000BF8F
:1007100000007048284000411C4000410400FA05D8
:100720000CED00E0009B1B786354009B5B1C009366
:10073000491C8142F6D3001D07A98870002001E002
:10074000F02007A9887132E007A9F02088710820FD
:100750008870FF20C87108724872887200981C4A1D
:10076000904224D300208871E079C2020024002343
:10077000184E0CE00098C01800686040040020206B
:100780006500E40F74436C40401EF9D11B1D934279
:10079000F0D3CC71200A0872200C4872200E8872A7
:1007A00005E007A80F244470017142718371684607
:1007B0000079012800D027E607A88078042800DC0B
:1007C0001FE6C01C1EE600001420041045554C42D4
:1007D00000200410B71DC104FEE7FEE7F0B586B0A7
:1007E0005B4800680A21884308210143584801609A
:1007F00058485949086059490868E02202430A608C
:1008000008694007FCD5564A9068564B0340802043
:10081000C0001843906020233024E44388692040BE
:10082000184388619068DD010543956001254E48B5
:1008300046694E4FBE4222D106680596066801966B
:100840000668009606683604360F0496006801268E
:100850000702FC208005384003900098C7091E203D
:10086000384002900198C701E02080013840019093
:1008700005988701F0208000384000900AE0C00C05
:100880000090C0204001019010200290F02040050F
:1008900003900026D76836483840039F0743D76047
:1008A000D0689F040743D7601E20C043002E08D0A5
:1008B000D6680640049F7F003743D760D6682E4332
:1008C000D6602C4E37683840029F07433760306847
:1008D000054335603068284D054000982843306056
:1008E0003068184330603068244D05400198284333
:1008F000306030685D01054335608869DD0005437F
:100900008D61D80291681E4D0D40054395601168B8
:1009100004250D43156011680907FCD511680843CB
:10092000106010688003FCD59068E0218843034381
:1009300093601068802189010143116010684004B0
:10094000FCD5034801680C40046006B0F0BD00000F
:10095000041000400000041008ED00E004005048BE
:1009600000004048FFF3FFFFE41E0010CCECBCFC8D
:10097000FFFFFFC0940050483FFCFFFFFFC7FFFF91
:10098000FF7FFEFF70B522482249234A1268002AE1
:1009900008D10A68002A05D04168006880F30888F9
:1009A0008847FEE71D4A0B6913400B61D3434C692E
:1009B0001C434C6104251A4C24682604F40F6D1E58
:1009C000F9D14D692A404A610A6913430B611549FF
:1009D000154A936A154DAB4207D19162FFF763FB4D
:1009E0000220FFF7EFFC002070BD42698A4203D06D
:1009F000FFF759FB0320F4E7002C03D0FFF753FB6C
:100A00000420EEE74168006880F308888847FEE725
:100A1000002004101000504894004048FF7FFFFF62
:100A20001000004845554C4204000020010101011E
:100A300080B572B6FFF7A6FF01BDFFFFFFFFFFFF06
:100A4000FFFFFFFFFFFFFFFFFFFFFFFFFFFFFFFFB6
:100A5000FFFFFFFFFFFFFFFFFFFFFFFFFFFFFFFFA6
:100A6000FFFFFFFFFFFFFFFFFFFFFFFFFFFFFFFF96
:100A7000FFFFFFFFFFFFFFFFFFFFFFFFFFFFFFFF86
:10200000000001205D920710EF550710FB550710E7
:10201000AA5555AA45554C4200000000000000009A
:10202000000000000000000000000000075607103C
:1020300000000000000000008BC6041009560710C5
:1020400047C804102BCA0410E3CB041047CD04107A
:102050001BE004102BEE04107BEF0410CFEF0410F4
:1020600013560710F3F50410170605106F0C051032
:102070008F1205100FF705107F270510872E05100A
:10208000D73905101556071061560710773A051015
:102090004D5607102F3C05101F3D051045560710E3
:1020A0003D560710273F051000000000000000000B
:1020B0000000000000000000000000000000000020
:1020C000F9B583B00F001600039801900124250094
:1020D000F01C00906846008A072801DA002023E0FF
:1020E000380080B2032803D01220009908700CE059
:1020F000019908784A781206120C104301998978E0
:1021000080B208F0CBFB0099087004200100317008
:102110000F2171702900C91CB170347106217171D1
:10212000B071AD1D280080B205B0F0BDFBB582B026
:1021300007001400019701252E00E01C009068465E
:10214000008A072801DA002021E0684680890228F9
:1021500003D01220009908700AE0019908784A78A3
:102160001206120C104380B208F09CFB0099087014
:102170000420010021700F2161703100C91CA17081
:1021800025711D216171A071B61D300080B205B0AE
:10219000F0BDFBB582B007001400019701252E00A9
:1021A000A01D00906846008A072801DA00201BE085
:1021B00068468089082803D012200099087004E03E
:1021C000019808F085FB00990870042020700E200B
:1021D00060703000C01CA0702800E07025710C20D9
:1021E0006071B61D300080B205B0F0BDF9B583B0A6
:1021F0000F0015000398029004242600A81D0190EA
:102200000020694608706846008A0A2801DA002022
:1022100032E0380080B2032803D012200199087000
:102220001BE0029908784A781206120C10436A469D
:102230000299897880B208F05DFB019908700299D3
:1022400008784A781206120C104301994870000A67
:102250008870684600780199C8702C700E206870EC
:102260003000C01CA8700120E8702D2028710C20BF
:102270006871B61D300080B205B0F0BDFBB582B00C
:1022800007001400019701252E00A01D009068464C
:10229000008A072801DA00201BE0684680890828A8
:1022A00003D012200099087004E0019808F070FB38
:1022B00000990870042020700E2060703000C01C4F
:1022C000A070E570632020710C206071B61D300095
:1022D00080B205B0F0BDFCB583B007000E0014005D
:1022E00002970525A01D01900020694608806846D8
:1022F000008A0B2801DA002033E0300080B2022887
:1023000003D01220019908701BE0029908784A78DE
:102310001206120C1043694680B208F049FB01997D
:102320000870029908784A781206120C1043019935
:102330004870000A8870019869460988C170090AC6
:102340000171042020700E2060702800C01CA07055
:102350000120E0707B2020710C206071AD1D2800F1
:1023600080B205B0F0BDFEB507000E001400019765
:102370000325A01D009068460089092801DA002085
:1023800033E0300080B2042803D012200099087096
:102390001BE001988178C2781206120C1143019A51
:1023A000107853781B061B0C184389B280B208F0D2
:1023B00003FB00990870019908784A781206120CFC
:1023C000104300994870000A8870042020700E2085
:1023D00060702800C01CA0700120E0707C2020717B
:1023E0000C206071AD1D280080B2FEBDF3B583B036
:1023F00015001F000924AE1D002001006A4651711E
:1024000001006A46518101006A46117101006A4665
:1024100011816946C880380080B20F2801DA002097
:1024200037E06846008A002802D01220307020E091
:1024300001A8801C009002AB01AA02A9891C01A876
:10244000401C08F0BDFA30706846407970706846EC
:102450004089B070000AF0706846007930716846B3
:1024600000897071000AB0716846C088F071000A76
:102470003072042028700E2068702000C01CA870E4
:1024800001200100E970287110206871A41D20004E
:1024900080B205B0F0BDFCB591B007000E0015008C
:1024A0004124A81D009012A80088472801DA0020C6
:1024B00022E0300080B2002803D01220009908707A
:1024C0000AE001A808F090FA00990870402201A9DA
:1024D0000098401C08F0B3FB042028700E206870A0
:1024E0002000C01CA8700120E87002202871102074
:1024F0006871A41D200080B213B0F0BDFCB583B09C
:1025000007000E0015000924A81D00906846008AE7
:102510000F2801DA002022E0300080B2002803D02A
:102520001220009908700AE001A808F0AEFB00999B
:102530000870082201A90098401C08F080FB0420C4
:1025400028700E2068702000C01CA8700120E87060
:102550000320287110206871A41D200080B205B0EE
:10256000F0BDFCB583B007000E0015000724A81DC0
:1025700000906846008A0D2801DA002022E0300031
:1025800080B2002803D01220009908700AE001A848
:1025900008F0B2FB00990870062201A90098401CBF
:1025A00008F04DFB042028700E2068702000C01C2D
:1025B000A8700120E8700920287110206871A41DFE
:1025C000200080B205B0F0BDF9B583B00F00160051
:1025D0000398029004242500B01D01900020694654
:1025E00008706846008A0A2801DA002030E03800C6
:1025F00080B2022803D012200199087019E00299D4
:1026000008784A781206120C1043694680B208F026
:102610007DFB01990870029908784A781206120C1D
:10262000104301994870000A887068460078019943
:10263000C87034700E2070702800C01CB07001206B
:10264000F0700520307114207071AD1D280080B22B
:1026500005B0F0BDFBB582B007001400019701255D
:102660002E00A01D00906846008A072801DA00208D
:102670001BE068468089082803D012200099087062
:1026800004E0019808F058FB0099087004202070BD
:102690000E2060703000C01CA0702800E070257112
:1026A00020206071B61D300080B205B0F0BDF9B5D4
:1026B00083B00F00160004242500B01D01900020F7
:1026C00001006A465180694608706846008A0A28F7
:1026D00001DA002027E0380080B2002803D0122061
:1026E0000199087010E0694600A8801C08F036FBCC
:1026F000019908700198694649884170090A8170FA
:10270000684600780199C87034700E2070702800F7
:10271000C01CB0700120F070022030712020707158
:10272000AD1D280080B205B0F0BDFCB583B0070038
:102730000E0015000924A81D00906846008A0F2885
:1027400001DA002022E0300080B2002803D01220FD
:10275000009908700AE001A808F01CFB00990870B5
:10276000082201A90098401C08F069FA042028708A
:102770000E2068702000C01CA8700120E8700320A3
:10278000287120206871A41D200080B205B0F0BD22
:10279000FBB582B007001400019701252E00A01D93
:1027A00000906846008A072801DA00201BE068468E
:1027B0008089062803D012200099087004E001984F
:1027C00008F0EDFA00990870042020700E20607067
:1027D0003000C01CA070E5700520207120206071C1
:1027E000B61D300080B205B0F0BDFBB586B0160056
:1027F000069D01242700B01D05906846008C07281F
:1028000001DA002036E06846808B0F2803D01220C2
:10281000059908701FE0A978E8780006000C0143CC
:1028200068464182297868780006000C01436846B2
:102830000182A87B0390687B0290E81D0190A87933
:1028400000906B792A796846418A6846008A08F0C8
:10285000B1FA05990870042030700E2070703800AD
:10286000C01CB070F4700620307120207071BF1D44
:10287000380080B209B0F0BDFBB505001400022697
:10288000A71D00206946087068460089082801DAFB
:1028900000201DE068468088002802D01220387091
:1028A00006E0684608F0DAFA387068460078787012
:1028B000042020700E2060703000C01CA070012029
:1028C000E0700720207120206071B61D300080B2BA
:1028D000FEBDF9B583B00F001600039801900124E6
:1028E0002500B01D00906846008A072801DA002004
:1028F0001EE0380080B2202803D012200099087012
:1029000007E00198411C0198007808F0AEFD00999D
:102910000870042030700E2070702800C01CB07049
:10292000F4700820307120207071AD1D280080B235
:1029300005B0F0BDF9B583B00F0016000398019003
:1029400001242500B01D00906846008A072801DA9E
:1029500000201EE0380080B2202803D01220009909
:10296000087007E00198411C0198007808F08CFD80
:1029700000990870042030700E2070702800C01C70
:10298000B070F4700920307120207071AD1D2800E6
:1029900080B205B0F0BDFBB582B00700140001970E
:1029A00001252E00A01D00906846008A072801DA44
:1029B00000201CE068468089012803D0122000997D
:1029C000087005E00198007808F093FD0099087000
:1029D000042020700E2060703000C01CA070E570D4
:1029E0000A20207120206071B61D300080B205B031
:1029F000F0BDF3B583B015001F00039801900124CA
:102A00002600A81D0290380080B2072801DA0020B5
:102A10002FE06846008A072803D012200299087028
:102A200018E00198C27801790906090C0A43019857
:102A3000417883781B061B0C19430198807900901C
:102A40000198437992B289B20198007809F0D4F9DB
:102A500002990870042028700E2068703000C01C95
:102A6000A870EC700B20287120206871B61D300012
:102A700080B205B0F0BDF9B583B00F001600039821
:102A8000019001242500B01D00906846008A0728A7
:102A900001DA00201EE0380080B2022803D01220A4
:102AA0000099087007E0019841780198007809F0D2
:102AB00099F900990870042030700E207070280079
:102AC000C01CB070F4700C20307120207071AD1DEE
:102AD000280080B205B0F0BDFBB58CB016000C9C90
:102AE00001252F00F01C0B906846008F072801DAA3
:102AF000002068E06846808E192803D012200B99C8
:102B0000087051E0E17D207E0006000C014368461C
:102B10004185617DA07D0006000C0143684601856A
:102B2000E17C207D0006000C01436846C184617C85
:102B3000A07C0006000C014368468184E07B217C78
:102B40000906090C0843617BA27B1206120C114393
:102B5000A278E3781B061B0C1A436B465A84227832
:102B600063781B061B0C1A436B461A846A46528D07
:102B700007926A46128D06926A46D28C05926A4680
:102B8000928C049280B2039089B20291207B0190D2
:102B9000A01D0090637922796846418C6846008CBC
:102BA00009F0F7F80B990870042030700F2070704E
:102BB0003800C01CB07035710D2070712020B071CC
:102BC000BF1D380080B20FB0F0BDFBB50700140088
:102BD00001252E00A01D009068460089072801DA13
:102BE000002019E068468088002803D01220009950
:102BF000087003E009F013F90099087004202070B0
:102C00000E2060703100C91CA170E5702071202079
:102C10006071B61D300080B2FEBDFBB5050014002A
:102C20000226A71D0020694608706846008908280A
:102C300001DA00201DE068468088002802D01220BA
:102C4000387006E0684609F00FFC38706846007876
:102C50007870042020700E2060703000C01CA070BE
:102C60000120E0700F20207120206071B61D30001F
:102C700080B2FEBDFBB50700140001252E00A01D8B
:102C8000009068460089072801DA00201AE06846AB
:102C90008088002803D012200099087003E009F012
:102CA000EAFB00990870042020700E20607030004C
:102CB000C01CA070E5701020207120206071B61D2E
:102CC000300080B2FEBDF9B583B00F001600039846
:102CD000019001242500B01D00906846008A072855
:102CE00001DA00201EE0380080B2072803D012204D
:102CF0000099087007E00198411C0198007809F0DC
:102D0000BEFB00990870042030700E2070702800FF
:102D1000C01CB070F4701120307120207071AD1D96
:102D2000280080B205B0F0BDF9B583B00F001600E1
:102D30000398019001242500B01D00906846008A88
:102D4000072801DA00201EE0380080B2072803D0EF
:102D500012200099087007E00198411C0198007842
:102D600009F0A6FB00990870042030700E207070E6
:102D70002800C01CB070F4701220307120207071D7
:102D8000AD1D280080B205B0F0BDFBB586B01600C1
:102D9000069D01242700F01C05906846008C07283A
:102DA00001DA002053E06846808B0E2803D0122001
:102DB000059908703CE0297B687B0006000C014304
:102DC00068464182A97AE87A0006000C01432A7A13
:102DD000687A0006000C0243A879EB791B061B0CED
:102DE00018436B46188228796B791B061B0C184315
:102DF0006B46D881A878EB781B061B0C18436B46F2
:102E0000988128786B781B061B0C18436B465B8AED
:102E1000029389B2019192B2009269460B8A694687
:102E2000CA896946898980B208F0FDFF0599087052
:102E3000042030700F2070703800C01CB0703471E6
:102E4000132070712020B071BF1D380080B209B00E
:102E5000F0BDFBB582B007001400019701252E00DC
:102E6000A01D00906846008A072801DA00201BE0B8
:102E700068468089052803D012200099087004E074
:102E8000019808F0F7FF00990870042020700E20C8
:102E900060703000C01CA070E570142020712020EC
:102EA0006071B61D300080B205B0F0BDF8B584B0D9
:102EB00007000E00150001970824A81D0090684621
:102EC000008A0E2801DA002033E0300080B20228A8
:102ED00003D01220009908701BE0019908784A7805
:102EE0001206120C104302A980B209F0F3FA0099FD
:102EF0000870019908784A781206120C104300995C
:102F00004870000A8870052202A90098C01C07F0CA
:102F100096FE042028700E2068702000C01CA87047
:102F20000120E8701520287120206871A41D200060
:102F300080B205B0F0BDFBB582B007001400019768
:102F400001252E00E01C00906846008A072801DA5F
:102F5000002021E068468089022803D012200099D1
:102F600008700AE0019908784A781206120C10439A
:102F700080B209F0B3FA00990870042020700F2085
:102F800060703000C01CA070257116206071202078
:102F9000A071B61D300080B205B0F0BDF8B586B0A6
:102FA00007000E00150001971124A81D0090684627
:102FB000008B172801DA002026E0300080B220289C
:102FC00003D01220009908700EE002AA01980100B7
:102FD0001031019809F088FA00990870102202A9AE
:102FE0000098401C07F02BFE042028700E2068700B
:102FF0002000C01CA8700120E87017202871202034
:103000006871A41D200080B207B0F0BDFCB583B08C
:1030100007000E0015000924A81D00906846008ACC
:103020000F2801DA002022E0300080B2002803D00F
:103030001220009908700AE001A809F071FA0099BD
:103040000870082201A90098401C07F0F8FD042030
:1030500028700E2068702000C01CA8700120E87045
:103060001820287120206871A41D200080B205B0AE
:10307000F0BDF3B583B015001F0003980090012444
:103080002600E81C0190380080B2072801DA0020F1
:103090002DE06846008A1C2803D012200199087090
:1030A00016E00098827AC17A0906090C0A43009951
:1030B00008784B781B061B0C184300990B000C3347
:1030C00092B20099891C80B208F0C6FE019908707E
:1030D000042028700F2068703000C01CA8702C716C
:1030E000192068712020A871B61D300080B205B08B
:1030F000F0BDFEB507000E00140001970325A01DCA
:10310000009068460089092801DA00202EE030008E
:1031100080B2122803D012200099087016E001999D
:1031200008784A781206120C10430199891C80B263
:1031300009F0FDF900990870019908784A7812069B
:10314000120C104300994870000A88700420207007
:103150000E2060702800C01CA0700120E0701A20B2
:10316000207120206071AD1D280080B2FEBDFBB52E
:103170000500140000950326A71D6846008909284C
:1031800001DA002029E068468088022802D0122057
:10319000387012E0009908784A781206120C104331
:1031A00080B209F0D3F93870009908784A7812068D
:1031B000120C10437870000AB870042020700E20A2
:1031C00060703000C01CA0700120E0701B202071D6
:1031D00020206071B61D300080B2FEBDFCB583B00A
:1031E00007000E0015000924A81D00906846008AFB
:1031F0000F2801DA002022E0300080B2002803D03E
:103200001220009908700AE001A809F0ADF90099B0
:103210000870082201A90098401C07F010FD042046
:1032200028700E2068702000C01CA8700120E87073
:103230001C20287120206871A41D200080B205B0D8
:10324000F0BDFBB582B007001400019701252E00E8
:10325000A01D00906846008A072801DA00201CE0C3
:1032600068468089012803D012200099087005E083
:103270000198007809F07DF9009908700420207009
:103280000E2060703000C01CA070E5701D20207101
:1032900020206071B61D300080B205B0F0BDF9B5D8
:1032A00083B00F0015000398009001242600A81D8C
:1032B00001906846008A072801DA002020E03800E3
:1032C00080B2032803D012200199087009E0009809
:1032D0008278009841780098007809F05AF90199AD
:1032E0000870042028700E2068703000C01CA87080
:1032F000EC701E20287120206871B61D300080B24D
:1033000005B0F0BDFBB5050014000326A71D002085
:103310006946088068460089092801DA00201FE014
:1033200068468088002802D01220387008E068467D
:1033300009F046F93870684600887870000AB8705D
:10334000042020700E2060703000C01CA07001208E
:10335000E0701F20207120206071B61D300080B207
:10336000FEBDFCB583B007000E00150000970324D6
:10337000A81D02906846008A092801DA00203FE073
:10338000300080B2062803D012200299087027E08E
:103390000098027941790906090C0A436846844677
:1033A00000988378C1780906090C0B436046838036
:1033B000009908784B781B061B0C184392B269469B
:1033C000898880B208F0FEFD02990870009908789B
:1033D0004A781206120C104302994870000A88704D
:1033E000042028700E2068702000C01CA8700120E6
:1033F000E8702220287120206871A41D200080B26E
:1034000005B0F0BDF9B581B00E0014000525A71D6B
:10341000002001006A46518069460880684600899C
:103420000B2801DA002026E0300080B2002802D00C
:10343000122038700FE0694600A8801C08F0CFFD0C
:103440003870684640887870000AB870684600880E
:10345000F870000A3871042020700E206070280077
:10346000C01CA0700120E07023202071202060711A
:10347000AD1D280080B2FEBDF9B583B00F00160067
:103480000398019001242500B01D00906846008A31
:10349000072801DA002028E0380080B2042803D091
:1034A00012200099087011E001988178C278120604
:1034B000120C1143019A107853781B061B0C184309
:1034C00089B280B208F093FD009908700420307032
:1034D0000E2070702800C01CB070F4702420307171
:1034E00020207071AD1D280080B205B0F0BDFBB585
:1034F0000700140001252E00E01C0090684600899A
:10350000072801DA00201AE068468088002803D0E6
:1035100012200099087003E008F093FD00990870EC
:10352000042020700F2060703000C01CA070257136
:10353000252060712020A071B61D300080B2FEBD34
:10354000FBB582B007001400019701252E00E01C96
:1035500000906846008A072801DA00201BE06846D0
:103560008089402803D012200099087004E0019857
:1035700008F06BFD00990870042020700F20607027
:103580003000C01CA0702571262060712020A07121
:10359000B61D300080B205B0F0BDF3B583B01500A4
:1035A0001F000398009001242600A81D01903800F8
:1035B00080B2072801DA002023E06846008A272825
:1035C00003D01220019908700CE000980300173313
:1035D0000098C21D0098411C0098007808F092FBEA
:1035E00001990870042028700E2068703000C01CFB
:1035F000A870EC702720287120206871B61D30005B
:1036000080B205B0F0BDF9B583B00F001600039885
:10361000019001242500B01D00906846008A07280B
:1036200001DA00201EE0380080B2072803D0122003
:103630000099087007E00198411C0198007808F093
:1036400058FB00990870042030700E20707028001C
:10365000C01CB070F4702820307120207071AD1D36
:10366000280080B205B0F0BDFBB5070014000125AD
:103670002E00A01D009068460089072801DA00206E
:103680001AE068468088002803D01220009908704C
:1036900003E008F06EFB00990870042020700E20F3
:1036A00060703000C01CA070E570292020712020BF
:1036B0006071B61D300080B2FEBDFBB50500140080
:1036C0000226A71D00206946087068460089082860
:1036D00001DA00201DE068468088002802D0122010
:1036E000387006E0684608F03EFB3870684600789F
:1036F0007870042020700E2060703000C01CA07014
:103700000120E0702A20207120206071B61D300059
:1037100080B2FEBDF8B584B007000E001500019719
:103720000724A81D00906846008A0D2801DA0020B1
:1037300026E0300080B2072803D0122000990870DC
:103740000EE002AA0198411C0198007808F0F5FAF1
:1037500000990870062202A90098401C07F06FFA31
:10376000042028700E2068702000C01CA870012062
:10377000E8702B20287120206871A41D200080B2E1
:1037800005B0F0BDF8B584B007000E001500019734
:103790000724A81D00906846008A0D2801DA002041
:1037A00026E0300080B2072803D01220009908706C
:1037B0000EE002AA0198411C0198007808F0C8FAAE
:1037C00000990870062202A90098401C07F037FAF9
:1037D000042028700E2068702000C01CA8700120F2
:1037E000E8702C20287120206871A41D200080B270
:1037F00005B0F0BDFBB582B00700140001970125AC
:103800002E00A01D00906846008A072801DA0020DB
:103810001CE068468089012803D0122000990870B6
:1038200005E00198007808F081FA009908700420FA
:1038300020700E2060703000C01CA070E5702D203C
:10384000207120206071B61D300080B205B0F0BD3F
:10385000FBB582B007001400019701252E00A01DC2
:1038600000906846008A072801DA002021E06846B7
:103870008089022803D01220009908700AE001997B
:1038800008784A781206120C104380B208F047FA02
:1038900000990870042020700E2060703000C01C59
:1038A000A070E5702E20207120206071B61D3000C0
:1038B00080B205B0F0BDF3B583B015001F00092438
:1038C000AE1D002001006A46D18001006A46918049
:1038D00001006A46518069460880380080B20F288E
:1038E00001DA002033E06846008A002802D0122066
:1038F00030701CE06B4600AA921C01A901A8801C34
:1039000008F07FFB30706846C0887070000AB070A5
:1039100068468088F070000A30716846408870718F
:10392000000AB07168460088F071000A3072042005
:1039300028700E2068702000C01CA8700120E8705C
:103940002F20287120206871A41D200080B205B0AE
:10395000F0BDFCB583B007000E00150002970524EA
:10396000A81D0190002001006A4651706946087048
:103970006846008A0B2801DA002037E0300080B268
:10398000022803D01220019908701FE002990878DC
:103990004A781206120C10436A4600A9491C80B2EC
:1039A00008F059FB01990870029908784A781206C4
:1039B000120C104301994870000A887068464078DC
:1039C0000199C87068460078019908710420287030
:1039D0000E2068702000C01CA8700120E870302004
:1039E000287120206871A41D200080B205B0F0BDB0
:1039F000F9B583B00F00150003980090012426004C
:103A0000A81D01906846008A072801DA002020E0FE
:103A1000380080B2032803D012200199087009E011
:103A200000988278009841780098007808F01EFB92
:103A300001990870042028700E2068703000C01CA6
:103A4000A870EC703120287120206871B61D3000FC
:103A500080B205B0F0BDF3B583B015001F00039828
:103A6000019001242600E81C0290380080B207284B
:103A700001DA00202FE06846008A072803D01220D0
:103A80000299087018E00198417982791206120CA7
:103A90001143019A107853781B061B0C184389B206
:103AA000009101990B790199CA780199897880B2BE
:103AB00008F0E9FA02990870042028700F20687055
:103AC0003000C01CA8702C71322068712020A871B1
:103AD000B61D300080B205B0F0BDF9B583B00F005F
:103AE00015000398009001242600A81D0190684647
:103AF000008A072801DA002020E0380080B203287D
:103B000003D012200199087009E00098827800988B
:103B100041780098007808F0C9FA019908700420EB
:103B200028700E2068703000C01CA870EC70332024
:103B3000287120206871B61D300080B205B0F0BD3C
:103B4000F3B583B015001F000398009001242600F0
:103B5000A81D0190380080B2072801DA002022E079
:103B60006846008A042803D01220019908700BE0EF
:103B70000098C3780098827800984178009800787F
:103B800008F0A1FA01990870042028700E206870CE
:103B90003000C01CA870EC7034202871202068719F
:103BA000B61D300080B205B0F0BDF9B583B00F008E
:103BB00016000398019001242500B01D009068466E
:103BC000008A072801DA00201EE0380080B20728AA
:103BD00003D012200099087007E00198411C019859
:103BE000007808F017F800990870042030700E2053
:103BF00070702800C01CB070F47035203071202027
:103C00007071AD1D280080B205B0F0BDF3B58FB066
:103C100016001F000F9C0225B01D0D9000200CA95E
:103C20000870380080B2082801DA002042E010A8AD
:103C30000088192803D012200D9908702AE06178B5
:103C4000A0780006000C01430CA80B90207E0A907F
:103C5000E07D0990A07D0890607D0790207D069012
:103C6000132020560590A07C049020000C30039077
:103C7000E07A0290A07A0190607A0090A31DE21C85
:103C800089B2207807F093FF0D9908700CA800788E
:103C90000D994870042030700E2070702800C01CF0
:103CA000B0700120F0703620307120207071AD1D91
:103CB000280080B211B0F0BDF3B583B015001F002D
:103CC0000398019001242600A81D0290380080B2BC
:103CD000072801DA002028E06846008A0199C9789F
:103CE000091D884203D01220029908700EE0019845
:103CF000001D00900198C37801988278019841785E
:103D00000198007807F0CFF8029908700420287015
:103D10000E2068703000C01CA870EC70372028712D
:103D200020206871B61D300080B205B0F0BDF3B53B
:103D300083B015001F000398019001242600A81DE0
:103D40000290380080B2072801DA002028E0684697
:103D5000008A0199C978091D884203D0122002996E
:103D600008700EE00198001D00900198C37801983A
:103D70008278019841780198007807F0A7F80299B5
:103D80000870042028700E2068703000C01CA870D5
:103D9000EC703820287120206871B61D300080B288
:103DA00005B0F0BDFBB5C2B01700429D01260196DB
:103DB000B81D009044A80088072801DA00204EE0D2
:103DC0000024687884421DDA02A80421614369183E
:103DD0008978062262438154042161436A18D178AC
:103DE00013791B061B0C194306226243821851806B
:103DF00004216143691849790622624380180171E0
:103E0000641CDEE743A80088697804225143891CBA
:103E1000884203D012200099087011E002AA697844
:103E2000287807F0F3FA00990870009800780028C5
:103E300006D102AA6978287807F0F5FE0099087083
:103E4000042038700E2078700198C01CB870FE7085
:103E500039203871202078710198801D80B245B0DA
:103E6000F0BDFBB5050014000326A71D0020694620
:103E7000088068460089092801DA00201FE06846AA
:103E80008088002802D01220387008E0684607F0C9
:103E9000D6FE3870684600887870000AB870042032
:103EA00020700E2060703000C01CA0700120E070F7
:103EB0003A20207120206071B61D300080B2FEBD16
:103EC000FBB5050014000226A71D002069460870F6
:103ED00068460089082801DA00201DE068468088CD
:103EE000002802D01220387006E0684607F0ADFEC8
:103EF0003870684600787870042020700E2060705A
:103F00003000C01CA0700120E0703B2020712020F8
:103F10006071B61D300080B2FEBDFBB582B00700F7
:103F20001400019701252E00A01D00906846008A0C
:103F3000072801DA00201CE068468089012803D0A8
:103F400012200099087005E00198007807F083FEC0
:103F500000990870042020700E2060703000C01C92
:103F6000A070E5703C20207120206071B61D3000EB
:103F700080B205B0F0BDFBB50700140001252E008E
:103F8000A01D009068460089072801DA00201AE089
:103F900068468088002803D012200099087003E04A
:103FA00007F060FE00990870042020700E206070F9
:103FB0003000C01CA070E5703D2020712020607191
:103FC000B61D300080B2FEBDF3B583B015001F00F2
:103FD0000398009001242600A81D0290380080B2AA
:103FE000072801DA002034E06846008A072803D059
:103FF0001220029908701DE0009843798179090622
:10400000090C0B430099C8780A791206120C104368
:10401000694688800098417882781206120C114314
:104020009BB26846828889B20098007807F01EFE2D
:1040300002990870042028700E2068703000C01C9F
:10404000A870EC703E20287120206871B61D3000E9
:1040500080B205B0F0BDF3B583B015001F00039822
:10406000009001242600A81D0190380080B2072886
:1040700001DA002025E06846008A00998978C91C89
:10408000884203D01220019908700BE00098C31CED
:1040900000988278009841780098007806F029FF0F
:1040A00001990870042028700E2068703000C01C30
:1040B000A870EC703F20287120206871B61D300078
:1040C00080B205B0F0BDF9B583B00F0016000398BB
:1040D000019001242500B01D00906846008A072841
:1040E00001DA00202AE0380080B2022803D0122032
:1040F0000099087013E0019841780198007807F062
:1041000073F90099087000980078002807D1019889
:1041100041780198007808F05FF800990870042051
:1041200030700E2070702800C01CB070F4704020F9
:10413000307120207071AD1D280080B205B0F0BD37
:10414000FBB5C2B017004298009001260296B81D38
:10415000019044A80088072801DA002059E00024D3
:1041600025002000082808D20099897801413140B3
:10417000002900D06D1C401CF4E7AC4224DA03A8EF
:104180000099052262438918C97806226243815446
:104190000099052262438A18117953791B061B0C7A
:1041A0001943062262438218518000990522624316
:1041B0008A189179D3791B061B0C19430622624396
:1041C00080188180641CD8E743A8008805216943D2
:1041D000C91C884203D01220019908700AE003AB81
:1041E00000988278009841780098007807F062FD86
:1041F00001990870042038700E2078700298C01C55
:10420000B870FE7041203871202078710298801DAE
:1042100080B245B0F0BDF3B583B015001F00039820
:10422000009001242600A81D0190380080B20728C4
:1042300001DA00202CE06846008A062803D012200C
:104240000199087015E00098037941790906090C75
:104250000B4300988278C1780906090C0A439BB287
:1042600092B2009841780098007807F032FD0199E9
:104270000870042028700E2068703000C01CA870E0
:10428000EC704220287120206871B61D300080B289
:1042900005B0F0BDFFB5C5B0459D01270397479810
:1042A000C01C029048A80088072801DA00209CE082
:1042B000002426002000082807D2697A01413940ED
:1042C000002900D0761C401CF5E7B44261DA1020CA
:1042D00060432818817AC27A1206120C114304A88E
:1042E000102262438152102161436A18117B537B73
:1042F0001B061B0C194310226243821851801021A7
:1043000061436A18917BD37B1B061B0C1943102257
:10431000624382189180102161436A18117C537C9A
:104320001B061B0C1943102262438218D1801021F6
:1043300061436A18917CD37C1B061B0C1943102225
:10434000624382181181102161436A18117D537DE7
:104350001B061B0C19431022624382185181102145
:1043600061436A18917DD37D1B061B0C19431022F3
:10437000624382189181102161436A18117E537E35
:104380001B061B0C1943102262438018C181641C58
:104390009BE746A80088102171430A31884203D068
:1043A0001220029908700BE004A80190687A00902E
:1043B000EB1CAA786978287807F068FC02990870E5
:1043C0000420479908700F20479948700398C01C33
:1043D0004799887047980771432047994871202072
:1043E000479988710398801D80B249B0F0BDFBB534
:1043F00084B01600049D01242700F01C0390684639
:10440000008B072801DA00202EE06846808A0E28FB
:1044100003D012200399087017E0E87A297B090677
:10442000090C0843697AAA7A1206120C11436A7BB6
:10443000029280B2019089B20091EB1CAA7869784F
:10444000287807F0D3FE03990870042030700F20FD
:1044500070703800C01CB07034714420707120201E
:10446000B071BF1D380080B207B0F0BDFBB50700CA
:10447000140001252E00A01D009068460089072821
:1044800001DA00201AE068468088002803D0122054
:104490000099087003E007F0C1FE0099087004203D
:1044A00020700E2060703000C01CA070E5704520A8
:1044B000207120206071B61D300080B2FEBDFBB5BA
:1044C00082B007001400019701252E00A01D009066
:1044D0006846008A072801DA002021E068468089C2
:1044E000022803D01220009908700AE00199087888
:1044F0004A781206120C104380B207F093FE00991E
:104500000870042020700E2060703000C01CA07065
:10451000E5704620207120206071B61D300080B209
:1045200005B0F0BDF9B583B00F00150003980090F9
:1045300001242600A81D01906846008A072801DA98
:10454000002020E0380080B2082803D01220019912
:10455000087009E00098C2790098411C0098007822
:1045600007F067FE01990870042028700E2068701B
:104570003000C01CA870EC704720287120206871A2
:10458000B61D300080B205B0F0BDF9B583B00F00A4
:1045900015000398009001242600A81D019068468C
:1045A000008A072801DA002020E0380080B20828BD
:1045B00003D012200199087009E00098C279009890
:1045C000411C0098007807F040FE01990870042013
:1045D00028700E2068703000C01CA870EC70482055
:1045E000287120206871B61D300080B205B0F0BD82
:1045F000FBB50700140001252E00A01D00906846A1
:104600000089072801DA00201AE06846808800281F
:1046100003D012200099087003E007F022FE0099F1
:104620000870042020700E2060703000C01CA07044
:10463000E5704920207120206071B61D300080B2E5
:10464000FEBDFBB5050014000226A71D002069462B
:10465000087068460089082801DA00201DE06846D5
:104660008088002802D01220387006E0684607F0E3
:10467000FCFD3870684600787870042020700E20A9
:1046800060703000C01CA0700120E0704A202071D2
:1046900020206071B61D300080B2FEBDF9B581B03A
:1046A0000E0014000325A71D002001006A4651706A
:1046B0006946087068460089092801DA002022E06E
:1046C000300080B2002802D0122038700BE069461A
:1046D00000A8401C07F084FF387068464078787066
:1046E00068460078B870042020700E2060702800A2
:1046F000C01CA0700120E0704B2020712020607150
:10470000AD1D280080B2FEBDF9B581B00E001400C9
:104710000525A71D002001006A46518069460880D2
:10472000684600890B2801DA002026E0300080B2BC
:10473000002802D0122038700FE0694600A8801CC3
:1047400007F056FF3870009800147870000AB870AF
:10475000009800B2F870000A3871042020700E2012
:1047600060702800C01CA0700120E0704C202071F7
:1047700020206071AD1D280080B2FEBDF9B583B068
:104780000F0016000398019001242500B01D009031
:104790006846008A072801DA002028E0380080B245
:1047A000042803D012200099087011E00198817844
:1047B000C278120612141143019A107853781B061E
:1047C0001B14184309B200B207F020FF00990870CB
:1047D000042030700E2070702800C01CB070F4707F
:1047E0004D20307120207071AD1D280080B205B0C1
:1047F000F0BDF9B583B00F001500039800900124B7
:104800002600A81D01906846008A072801DA0020CA
:1048100020E0380080B2082803D0122001990870E7
:1048200009E00098C2790098411C0098007807F0D0
:10483000A4FA01990870042028700E2068703000D6
:10484000C01CA870EC704E20287120206871B61D25
:10485000300080B205B0F0BDFBB586B01600069CF6
:1048600001252F00B01D04906846008C072801DA4E
:10487000002028E06846808BA179C91D884203D0BA
:104880001220049908700FE0E01D0390A0790290B7
:104890006079019020790090E378A278617820789F
:1048A00007F0E4FE04990870042030700E20707048
:1048B0003800C01CB070F5704F203071202070712E
:1048C000BF1D380080B209B0F0BDFBB586B0160040
:1048D000069C01252F00B01D04906846008C072817
:1048E00001DA002028E06846808BA179C91D884242
:1048F00003D01220049908700FE0E01D0390A07906
:1049000002906079019020790090E378A278617834
:10491000207807F0B0FE04990870042030700E2053
:1049200070703800C01CB070F570502030712020BD
:104930007071BF1D380080B209B0F0BDFBB584B006
:104940001600049D01242700B01D02906846008BCC
:10495000072801DA002024E06846808A2979491D69
:10496000884203D01220029908700BE0681D019064
:1049700028790090EB78AA786978287807F058FEB3
:1049800002990870042030700E2070703800C01C2E
:10499000B070F4705120307120207071BF1D38004C
:1049A00080B207B0F0BDF9B583B00F0016000398D0
:1049B000019001242500B01D00906846008A072858
:1049C00001DA00201EE0380080B2022803D0122055
:1049D0000099087007E0019841780198007802007A
:1049E000012000990870042030700E20707028009B
:1049F000C01CB070F4705220307120207071AD1D59
:104A0000280080B205B0F0BDF3B585B016001F00D8
:104A1000059D0324B01D0390380080B2092801DAF7
:104A2000002036E06846008B6979891D884203D0F2
:104A30001220039908701CE068462A7869780906F4
:104A4000090C0A430281A81D0190687900902B7916
:104A5000EA78A9786846008907F0EFFD03990870A5
:104A6000287869780906090C084303994870000AF8
:104A70008870042030700E2070702000C01CB07050
:104A80000120F0705320307120207071A41D20008F
:104A900080B207B0F0BDF3B583B016001F00039DD0
:104AA0000324B01D0290380080B2092801DA0020EA
:104AB00034E06846008A2979491D884203D01220D3
:104AC000029908701AE068462A7869780906090C84
:104AD0000A438280681D00902B79EA78A97868469D
:104AE000808807F0AFFD0299087028786978090678
:104AF000090C084302994870000A8870042030703D
:104B00000E2070702000C01CB0700120F070542086
:104B1000307120207071A41D200080B205B0F0BD5E
:104B2000F1B582B00F0015001E000298009003241A
:104B3000A81D0190300080B2092801DA002035E07C
:104B4000380080B20099C978091D884203D012202C
:104B5000019908701AE0009908784A781206120C38
:104B6000104300990B1D0099CA780099897880B28A
:104B700007F06DFD01990870009908784A781206CF
:104B8000120C104301994870000A887004202870A4
:104B90000E2068702000C01CA8700120E87055200D
:104BA000287120206871A41D200080B2FEBDF1B5DF
:104BB00084B00F0015001E00049801900324A81D66
:104BC0000390300080B2092801DA00203FE038006D
:104BD00080B2072803D012200399087027E00198BB
:104BE000C27801790906090C0A436846844601988F
:104BF000037841780906090C0B436046038101984C
:104C0000807900900198437992B201988178684642
:104C1000008907F021FD03990870019908784A7806
:104C20001206120C104303994870000A8870042081
:104C300028700E2068702000C01CA8700120E87049
:104C40005620287120206871A41D200080B205B074
:104C5000F0BDFEB507000E00140001970325A01D4E
:104C6000009068460089092801DA00202EE0300013
:104C700080B2032803D012200099087016E0019931
:104C800008784A781206120C10430199897880B28C
:104C90000200012000990870019908784A781206EC
:104CA000120C104300994870000A8870042020708C
:104CB0000E2060702800C01CA0700120E0705720FA
:104CC000207120206071AD1D280080B2FEBDF3B5BB
:104CD00081B015001F000524AE1D002001006A46AA
:104CE000D17001006A46917001006A4651706946B0
:104CF0000870380080B20B2801DA00202CE06846EA
:104D00000089002802D01220307015E06B4600AAFE
:104D1000521C00A9891C00A8C01C07F0A2FC30701E
:104D20006846C078707068468078B0706846407891
:104D3000F070684600783071042028700E2068708A
:104D40002000C01CA8700120E87058202871202085
:104D50006871A41D200080B2FEBDF9B583B00F00BC
:104D600016000398019001242500B01D00906846AC
:104D7000008A072801DA002023E0380080B20328E7
:104D800003D01220009908700CE0019908784A7845
:104D90001206120C10430199897880B207F06BFA61
:104DA00000990870042030700E2070702800C01C1C
:104DB000B070F4705920307120207071AD1D280042
:104DC00080B205B0F0BDFCB583B007000E00150041
:104DD00000970324A81D02906846008A092801DA7A
:104DE00000203FE0300080B2062803D01220029954
:104DF000087027E00098027941790906090C0A43F6
:104E00006846844600988378C1780906090C0B43EC
:104E100060468380009908784B781B061B0C18436A
:104E200092B26946898880B207F05FFA02990870E9
:104E3000009908784A781206120C104302994870BB
:104E4000000A8870042028700E2068702000C01CA2
:104E5000A8700120E8705A20287120206871A41DD4
:104E6000200080B205B0F0BDFEB507000E001500B1
:104E700000970324A81D019068460089092801DADB
:104E8000002035E0300080B2052803D012200199BF
:104E900008701DE000988178C2781206120C114348
:104EA000009A107853781B061B0C1843009A12794D
:104EB00089B280B207F00CFA01990870009908785D
:104EC0004A781206120C104301994870000A887043
:104ED000042028700E2068702000C01CA8700120DB
:104EE000E8705B20287120206871A41D200080B22A
:104EF000FEBDF1B584B00F0015001E0004980190AE
:104F00000324A81D0390300080B2092801DA002094
:104F100049E0380080B2082803D0122003990870B5
:104F200031E00198437981790906090C0B43684601
:104F300084460198C27801790906090C0A43604643
:104F40004281684684460198027841780906090C36
:104F50000A43604602810198C07900909BB268467E
:104F60004289019881786846008907F09EF9039983
:104F70000870019908784A781206120C10430399B8
:104F80004870000A8870042028700E206870200085
:104F9000C01CA8700120E8705C2028712020687176
:104FA000A41D200080B205B0F0BDF3B583B015009C
:104FB0001F000398009001242600A81D01903800CE
:104FC00080B2072801DA00202CE06846008A062813
:104FD00003D012200199087015E00098C278017979
:104FE0000906090C0A430098417883781B061B0CBC
:104FF00019430098437992B289B20098007807F07B
:1050000044F901990870042028700E20687030005F
:10501000C01CA870EC705D20287120206871B61D3E
:10502000300080B205B0F0BDFBB588B01600089C1A
:105030000898A1794018C01D069001252F00B01DC9
:1050400005906846008D072801DA00202CE06846AC
:10505000808CA1790831884203D01220059908700C
:1050600013E00698002140560490E01D0390A079BB
:1050700002906079019020790090E378A2786178BD
:10508000207807F0FDFA05990870042030700E2092
:1050900070703800C01CB070F5707B20307120201B
:1050A0007071BF1D380080B20BB0F0BDFBB582B08F
:1050B00014000325A71D00263000694608806846B5
:1050C000008A092801DA00201EE06846808900284D
:1050D00002D01220387008E0684607F0D7FA38701E
:1050E000684600887870000AB870042020700E208E
:1050F00060702800C01CA0700120E0702671FC20A8
:105100006071AD1D280080B205B0F0BDF3B58BB065
:1051100016001F000F25B41D0020010008AAD21C94
:105120001170010008AA921C1170010008AA521CFB
:105130001170010008AA117001006A461185010072
:105140006A46D17701006A46917701006A46517735
:1051500001006A46117701006A46D1846946888455
:10516000380080B2152801DA00205CE06846008E25
:10517000002802D01220207045E009A8069009A856
:10518000801C059007A8049007A8401C039007A85E
:10519000801C029007A8C01C01900AA8009008ABD0
:1051A00008AA521C08A9891C08A8C01C07F07CFA90
:1051B000207008A8C01C0078607008A8801C0078C7
:1051C000A07008A8401C0078E07008A80078207142
:1051D0006846008D6071000AA0716846C07FE0716A
:1051E0006846807F20726846407F60726846007F14
:1051F000A0726846C08CE072000A20736846808CFA
:105200006073000AA073042030700E2070702800B4
:10521000C01CB07001200100F1703071FC20707171
:10522000AD1D280080B20DB0F0BDF9B583B00F0000
:1052300015000398009001242600A81D01906846DF
:10524000008A072801DA002023E0380080B20099A4
:105250004978891C884203D012200199087009E01E
:105260000098821C009841780098007807F0D8FADE
:1052700001990870042028700E2068703000C01C4E
:10528000A870EC700C202871FC206871B61D3000ED
:1052900080B205B0F0BDF9B5C3B00F00150043985A
:1052A000019000200400AE1D6946087044A80088E3
:1052B000072801DA00203AE0380080B2012802D045
:1052C0001220307023E002AA69460198007807F0A6
:1052D000ABFA3070641C44A801882000C01D8142D4
:1052E00001DA002023E0684600787070641C44A84E
:1052F000008871786118891D884201D2002016E06B
:10530000727802A9B01C05F09AFC70782418042069
:1053100028700E2068702000C01CA8700120E87062
:105320000D202871FC206871A41D200080B245B0BA
:10533000F0BDF9B583B00F00160003980190012469
:105340002500B01D00906846008A072801DA002079
:105350001EE0380080B2022803D0122000990870A5
:1053600007E0019841780198007807F061FA009908
:105370000870042030700E2070702800C01CB070BF
:10538000F4700F203071FC207071AD1D280080B2C8
:1053900005B0F0BDF1B582B00F0015001E00052468
:1053A000A81D019000200090300080B20B2801DA87
:1053B000002021E0380080B2002803D0122001999B
:1053C000087009E0684607F037FA019908700198FB
:1053D000411C009807F038FA042028700E206870ED
:1053E0002000C01CA8700120E87014202871FC2047
:1053F0006871A41D200080B2FEBDF9B583B00F0016
:1054000016000398019001242500B01D0090684605
:10541000008A072801DA00201EE0380080B2022846
:1054200003D012200099087007E001984178019894
:10543000007807F013FA00990870042030700E20ED
:1054400070702800C01CB070F47015203071FC2002
:105450007071AD1D280080B205B0F0BDFBB507002E
:10546000140001252E00A01D009068460089072821
:1054700001DA00201AE068468088002803D0122054
:105480000099087003E007F041FA009908700420C1
:1054900020700E2060703000C01CA070E5701620D7
:1054A0002071FC206071B61D300080B2FEBDF8B5E1
:1054B00088B007000E00150001971924A81D009060
:1054C0006846008C1F2801DA00202BE0300080B2F3
:1054D000012803D012200099087013E004AA02A941
:1054E0000198007807F026FA00990870082202A9AE
:1054F0000098401C05F0A3FB102204A90098093075
:1055000005F09DFB042028700E2068702000C01C50
:10551000A8700120E87017202871FC206871A41D74
:10552000200080B209B0F0BDFBB582B007001400C6
:10553000019701252E00A01D00906846008A0728CB
:1055400001DA002021E068468089022803D0122079
:10555000009908700AE0019908784A781206120C3E
:10556000104380B207F04EFA0099087004202070B2
:105570000E2060703000C01CA070E57018202071F3
:10558000FC206071B61D300080B205B0F0BDF3B5EF
:1055900083B015001F000398019001242600A81D68
:1055A0000090380080B2072801DA00201DE068462C
:1055B000008A042803D012200099087006E00198A0
:1055C00007F028FA07F032FA0099087004202870D2
:1055D0000E2068703000C01CA870EC701A20287172
:1055E000FC206871B61D300080B205B0F0BDFBB57F
:1055F0000700140001252E00A01D009068460089B8
:10560000072801DA00201AE068468088002803D0C5
:1056100012200099087003E007F03EF80099087026
:10562000042020700E2060703000C01CA070E57057
:1056300020202071FC206071B61D300080B2FEBDBC
:10564000F3B583B015001F000398019001242600D4
:10565000E81C0290380080B2072801DA00202AE016
:105660006846008A062803D012200299087013E0C9
:105670000198C37801790906090C0B430198407918
:1056800000909BB201988278019841780198007847
:1056900007F054F802990870042028700F206870F1
:1056A0003000C01CA8702C712B206871FC20A871E0
:1056B000B61D300080B205B0F0BDF3B583B0150063
:1056C0001F000398009001242600A81D01903800B7
:1056D00080B2072801DA002024E06846008A009999
:1056E0000979491D884203D01220019908700AE007
:1056F000009807F08FF900994A1D0099097907F081
:10570000A1F901990870042028700E2068703000FB
:10571000C01CA870EC7035202871FC206871B61D83
:10572000300080B205B0F0BDF3B5C3B015001E0067
:105730004398019000200400AF1D694608703000B6
:1057400080B2072801DA00203DE044A8008805283F
:1057500002D01220387026E0019807F05BF902AB06
:105760006A460199097907F086F93870641C31009E
:1057700089B22000C01D814201DA002023E0684682
:1057800000787870641C300080B279786118891DC7
:10579000884201D2002016E07A7802A9B81C05F0F0
:1057A0004EFA78782418042028700E2068702000A3
:1057B000C01CA8700120E87036202871FC20687198
:1057C000A41D200080B245B0F0BDFBB582B007003B
:1057D0001400019701252E00A01D00906846008A44
:1057E000072801DA00201CE068468089012803D0E0
:1057F00012200099087005E00198007807F05EF922
:1058000000990870042020700E2060703000C01CC9
:10581000A070E57085202071FC206071B61D3000FD
:1058200080B205B0F0BDFBB586B01600069D012420
:105830002700B01D04906846008C072801DA00207C
:1058400028E06846808B0B2803D01220049908704A
:1058500011E0E81D07F0DEF80390A879029068795E
:10586000019028790090EB78AA786978287807F079
:105870002DF904990870042030700E2070703800E3
:10588000C01CB070F47086203071FC207071BF1D98
:10589000380080B209B0F0BDF3B583B015001F0029
:1058A0000398019001242600A81D0090380080B2C2
:1058B000072801DA002027E06846008A062803D07E
:1058C00012200099087010E00198801C07F0A2F8DF
:1058D00001990A784B781B061B0C1A430100100033
:1058E00080B207F039F900990870042028700E2062
:1058F00068703000C01CA870EC7088202871FC20F3
:105900006871B61D300080B205B0F0BDF1B588B049
:105910000F0015001E00089806900724A81D05908A
:105920000020694608826946C8816946888130003E
:1059300080B20D2801DA00203CE0380080B2042853
:1059400003D012200599087024E003A8029003A850
:10595000801C019004A800900698C378069882786D
:10596000069841780698007807F002F905990870C2
:1059700005986946098A4170090A81700598694647
:10598000C989C170090A01710598694689894171FF
:10599000090A8171042028700E2068702000C01C44
:1059A000A8700120E8708A202871FC206871A41D6D
:1059B000200080B209B0F0BDFBB582B00700140032
:1059C000019701252E00E01C00906846008A0728F8
:1059D00001DA002021E068468089022803D01220E5
:1059E000009908700AE0019908784A781206120CAA
:1059F000104380B207F0ECF8009908700420207082
:105A00000F2060703000C01CA07025718D20607167
:105A1000FC20A071B61D300080B205B0F0BDFCB511
:105A200083B007000E00150002970324A81D019003
:105A3000002001006A465170694608706846008A75
:105A4000092801DA00202DE0300080B2022803D0BE
:105A500012200199087015E0029908784A78120618
:105A6000120C10436A4600A9491C80B207F0B4F832
:105A70000199087068464078019948706846007836
:105A800001998870042028700E2068702000C01CC6
:105A9000A8700120E87090202871FC206871A41D76
:105AA000200080B205B0F0BDFBB582B00700140045
:105AB000019701252E00A01D00906846008A072846
:105AC00001DA002021E068468089022803D01220F4
:105AD000009908700AE0019908784A781206120CB9
:105AE000104380B207F07EF80099087004202070FF
:105AF0000E2060703000C01CA070E57091202071F5
:105B0000FC206071B61D300080B205B0F0BDF9B563
:105B100083B00F0016000398019001242500F01CAB
:105B200000906846008A072801DA002023E0380048
:105B300080B2032803D01220009908700CE001996C
:105B400008784A781206120C10430199897880B2BD
:105B500007F056F800990870042030700F2070701C
:105B60002800C01CB070347193207071FC20B0719B
:105B7000AD1D280080B205B0F0BDFBB507001400D4
:105B800001252E00A01D009068460089072801DA33
:105B900000201AE068468088002803D0122000996F
:105BA000087003E007F030F80099087004202070B6
:105BB0000E2060703000C01CA070E5709420207131
:105BC000FC206071B61D300080B2FEBDFBB582B016
:105BD00007001400019701252E00A01D00906846C3
:105BE000008A072801DA002021E06846808902281F
:105BF00003D01220009908700AE0019908784A78C9
:105C00001206120C104380B207F002F800990870D7
:105C1000042020700E2060703000C01CA070E57061
:105C200095202071FC206071B61D300080B205B057
:105C3000F0BDF9B583B00F00150003980090012462
:105C40002600E81C01906846008A072801DA002037
:105C500020E0380080B2082803D012200199087093
:105C600009E00098821C009841780098007806F0BE
:105C700036F901990870042028700F2068703000F0
:105C8000C01CA8702C719C206871FC20A871B61DE6
:105C9000300080B205B0F0BDFBB582B00700140043
:105CA000019701252E00A01D00906846008A072854
:105CB00001DA00201CE068468089012803D0122008
:105CC0000099087005E00198007806F030F9009915
:105CD0000870042020700E2060703000C01CA0707E
:105CE000E5709D202071FC206071B61D300080B2EF
:105CF00005B0F0BDFBB586B01600069D0124270057
:105D0000F01C05906846008C072801DA002053E05B
:105D10006846808B0E2803D01220059908703CE05D
:105D2000297B687B0006000C014368464182A97A02
:105D3000E87A0006000C01432A7A687A0006000C13
:105D40000243A879EB791B061B0C18436B4618829B
:105D500028796B791B061B0C18436B46D881A878F1
:105D6000EB781B061B0C18436B46988128786B78E0
:105D70001B061B0C18436B465B8A029389B2019188
:105D800092B2009269460B8A6946CA896946898936
:105D900080B206F0D3F805990870042030700F2007
:105DA00070703800C01CB07034719E207071FC207F
:105DB000B071BF1D380080B209B0F0BDF9B583B035
:105DC0000F0016000398019001242500F01C00909C
:105DD0006846008A072801DA002023E0380080B2F4
:105DE000032803D01220009908700CE0019908786C
:105DF0004A781206120C10430199897880B206F095
:105E0000B6F800990870042030700F2070702800D8
:105E1000C01CB07034719F207071FC20B071AD1D3A
:105E2000280080B205B0F0BDF8B584B007000E00C0
:105E3000150001970724A81D00906846008A0D28C8
:105E400001DA002023E0300080B2062803D01220BF
:105E5000009908700BE002A9019806F0DDFE009998
:105E60000870062202A90098401C04F0E8FE0420F5
:105E700028700E2068702000C01CA8700120E870F7
:105E8000A0202871FC206871A41D200080B205B0FC
:105E9000F0BDF3B5C3B016001F0043980290002573
:105EA0002C00B01D0190280069460870380080B2AF
:105EB000072801DA00205CE044A80088022803D00B
:105EC00012200199087044E003AB6A4602984178B9
:105ED0000298007806F0A4FE01990870641C39004D
:105EE00089B22000C01D814201DA002041E06846ED
:105EF000007801994870641C68460078854228DA69
:105F0000390089B22000C01D814201D2002030E05A
:105F100003A907206843085C019A07236B43D21842
:105F20009070641C3A0092B220000C30824201DA78
:105F300000201EE00622072068430818411C019833
:105F400007236B43C018C01C04F079FEA41D6D1C10
:105F5000D2E7042030700E2070702000C01CB0709A
:105F60000120F070A3203071FC207071A41D20006E
:105F700080B245B0F0BDF9B583B00F0016000398AC
:105F8000019001242500B01D00906846008A072872
:105F900001DA00201EE0380080B2072803D012206A
:105FA0000099087007E00198411C0198007806F0FC
:105FB00041FE00990870042030700E207070280097
:105FC000C01CB070F470A4203071FC207071AD1D45
:105FD000280080B205B0F0BDF9B583B00F001600FF
:105FE0000398019001242500B01D00906846008AA6
:105FF000072801DA002023E0380080B2032803D00C
:106000001220009908700CE0019908784A7812066D
:10601000120C10430199897880B206F008F80099B3
:106020000870042030700E2070702800C01CB07002
:10603000F470A5203071FC207071AD1D280080B275
:1060400005B0F0BDF9B583B00F00160003980190BC
:1060500001242500B01D00906846008A072801DA57
:10606000002023E0380080B2032803D012200099DA
:1060700008700CE0019908784A781206120C104357
:106080000199897880B205F0C8FF00990870042052
:1060900030700E2070702800C01CB070F470A62004
:1060A0003071FC207071AD1D280080B205B0F0BDCC
:1060B000F3B589B015001F00099802901A24AE1D8F
:1060C000002001006A46517169460871380080B2AB
:1060D000202801DA002035E06846008D012802D032
:1060E000122030701EE005A8009001AB03AA01A9A0
:1060F000491C0298007806F0ADFD30706846407982
:106100007070062203A9B01C04F099FD0298007873
:106110003072684600797072102205A930000A308A
:1061200004F08DFD042028700E2068702000C01C33
:10613000A8700120E870A7202871FC206871A41DB8
:10614000200080B20BB0F0BDF3B585B015001F0084
:106150000598029001242600A81D0390380080B203
:10616000072801DA002028E06846008B1A2803D0AF
:1061700012200399087011E002980A3001900298E9
:10618000407A00900298037A0298821C0298417823
:106190000298007806F068FD0399087004202870C2
:1061A0000E2068703000C01CA870EC70A820287108
:1061B000FC206871B61D300080B207B0F0BDF9B5A3
:1061C00083B00F0016000398019001242500B01D34
:1061D00000906846008A072801DA00201EE0380097
:1061E00080B2072803D012200099087007E00198B8
:1061F000411C0198007806F04BFD009908700420BE
:1062000030700E2070702800C01CB070F470AA208E
:106210003071FC207071AD1D280080B205B0F0BD5A
:10622000FBB58EB016000E9C01252F00B01D0B9003
:1062300010A80088072801DA002043E06846808F14
:106240001B2803D012200B9908702CE02000083086
:1062500006F0E0FB0C90201D06F0DCFBA278E17854
:106260000906090C0A43A17E0A91617E0991217EEB
:106270000891E17D0791A17D069115216156059157
:10628000217D049121000E310391617B0291217BDC
:1062900001910C990091030092B26178207806F088
:1062A00001FD0B990870042030700E2070703800CA
:1062B000C01CB070F570AB203071FC207071BF1D38
:1062C000380080B211B0F0BDFBB5C2B01700429DDE
:1062D00001260196B81D009044A80088072801DA1D
:1062E00000204EE00024687884421DDA02A80421D0
:1062F000614369188978062262438154042161430D
:106300006A18D17813791B061B0C194306226243C5
:106310008218518004216143691849790622624339
:1063200080180171641CDEE743A8008869780422A4
:106330005143891C884203D012200099087011E053
:1063400002AA6978287805F084F800990870009806
:106350000078002806D102AA6978287806F0C9FCDE
:1063600000990870042038700E2078700198C01CC5
:10637000B870FE70AC203871FC2078710198801DD7
:1063800080B245B0F0BDF3B583B015001F0003988F
:10639000009001242600A81D0190380080B2072833
:1063A00001DA002025E06846008A00998978C91C36
:1063B000884203D01220019908700BE00098C31C9A
:1063C00000988278009841780098007805F06BF882
:1063D00001990870042028700E2068703000C01CDD
:1063E000A870EC70AD202871FC206871B61D3000DB
:1063F00080B205B0F0BDF3B583B015001F0003985F
:10640000009001242600A81D0190380080B20728C2
:1064100001DA002025E06846008A00998978C91CC5
:10642000884203D01220019908700BE00098C31C29
:1064300000988278009841780098007805F046F836
:1064400001990870042028700E2068703000C01C6C
:10645000A870EC70AE202871FC206871B61D300069
:1064600080B205B0F0BDF3B585B015001F000598EA
:10647000029001242600A81D0390380080B207284E
:1064800001DA002032E06846008B082803D0122091
:10649000039908701BE002998879CA791206120CD8
:1064A0001043029A117953791B061B0C194380B2D1
:1064B000019089B200910298C3780298827802987C
:1064C00041780298007805F0DBFC039908700420FD
:1064D00028700E2068703000C01CA870EC70AF20CF
:1064E0002871FC206871B61D300080B207B0F0BD85
:1064F000FBB586B01600069D01242700B01D05904F
:106500006846008C072801DA00204BE06846808B43
:106510000D2803D012200599087034E0E97A287B11
:106520000006000C014368460182687AA97A0906D0
:10653000090C0843EA79297A0906090C0A436979A2
:10654000AB791B061B0C19436B46D981E9782B7973
:106550001B061B0C19436B4699816978AB781B06A7
:106560001B0C19436B461B8A029380B2019092B2B6
:1065700000926846C3896846828989B2287805F006
:1065800095FC05990870042030700E20707038005A
:10659000C01CB070F470B0203071FC207071BF1D51
:1065A000380080B209B0F0BDF3B583B015001F000C
:1065B0000398009001242600A81D0190380080B2A5
:1065C000072801DA00202CE06846008A062803D05C
:1065D00012200199087015E00098037941790906A5
:1065E000090C0B4300988278C1780906090C0A430C
:1065F0009BB292B2009841780098007805F07BFC3D
:1066000001990870042028700E2068703000C01CAA
:10661000A870EC70B1202871FC206871B61D3000A4
:1066200080B205B0F0BDF9B583B00F001500039836
:10663000009001242600A81D01906846008A0728C2
:1066400001DA002020E0380080B2082803D01220B0
:106650000199087009E00098821C00984178009820
:10666000007805F058FC01990870042028700E206D
:1066700068703000C01CA870EC70B2202871FC203B
:106680006871B61D300080B205B0F0BDFBB5C2B078
:106690001700429D01260196B81D009044A800886D
:1066A000072801DA00203BE00024A878844214DAAD
:1066B00002A8072161436918C978072262438154FF
:1066C0000622072161436918091D07236343C01887
:1066D000401C04F0B4FA641CE7E743A80088A978DA
:1066E00007225143C91C884203D012200099087028
:1066F00007E002ABAA786978287806F0FEFA0099DC
:106700000870042038700E2078700198C01CB87092
:10671000FE70B3203871FC2078710198801D80B222
:1067200045B0F0BDFBB582B007001400019701250C
:106730002E00A01D00906846008A072801DA00207C
:106740001CE068468089012803D012200099087057
:1067500005E00198007806F0E3FA0099087004203B
:1067600020700E2060703000C01CA070E570B42056
:106770002071FC206071B61D300080B205B0F0BD04
:10678000F3B583B015001F00039800900124260084
:10679000A81D0290380080B2072801DA002034E0FA
:1067A0006846008A072803D01220029908701DE06D
:1067B0000098437981790906090C0B430099C87840
:1067C0000A791206120C10436946888000984178B5
:1067D00082781206120C11439BB26846828889B2F5
:1067E0000098007805F08EFD02990870042028704A
:1067F0000E2068703000C01CA870EC70B5202871A5
:10680000FC206871B61D300080B205B0F0BDF3B554
:1068100083B015001F000398009001242600A81DD6
:106820000190380080B2072801DA002025E0684690
:10683000008A00998978C91C884203D012200199E6
:1068400008700BE00098C31C00988278009841788B
:106850000098007804F060FB01990870042028700B
:106860000E2068703000C01CA870EC70B620287133
:10687000FC206871B61D300080B205B0F0BDF9B5DE
:1068800083B00F0016000398019001242500B01D6D
:1068900000906846008A072801DA00201EE03800D0
:1068A00080B2022803D012200099087007E00198F6
:1068B00041780198007805F035FD009908700420B2
:1068C00030700E2070702800C01CB070F470B720BB
:1068D0003071FC207071AD1D280080B205B0F0BD94
:1068E000FBB584B01600049D01242700F01C039022
:1068F0006846008B072801DA00202EE06846808A6F
:106900000E2803D012200399087017E0E87A297B3B
:106910000906090C0843697AAA7A1206120C114377
:106920006A7B029280B2019089B20091EB1CAA7836
:106930006978287805F00CFD039908700420307000
:106940000F2070703800C01CB0703471B8207071A6
:10695000FC20B071BF1D380080B207B0F0BDFBB5A0
:106960000700140001252E00A01D00906846008934
:10697000072801DA00201AE068468088002803D042
:1069800012200099087003E005F0FAFC00990870E5
:10699000042020700E2060703000C01CA070E570D4
:1069A000B9202071FC206071B61D300080B2FEBDA0
:1069B000FBB582B007001400019701252E00A01D31
:1069C00000906846008A072801DA002021E0684626
:1069D0008089022803D01220009908700AE00199EA
:1069E00008784A781206120C104380B205F0CCFCED
:1069F00000990870042020700E2060703000C01CC8
:106A0000A070E570C0202071FC206071B61D3000C0
:106A100080B205B0F0BDF9B583B00F001500039842
:106A2000009001242600A81D01906846008A0728CE
:106A300001DA002020E0380080B2082803D01220BC
:106A40000199087009E00098C2790098411C0098EB
:106A5000007805F0AAFC01990870042028700E2027
:106A600068703000C01CA870EC70C1202871FC2038
:106A70006871B61D300080B205B0F0BDF9B583B0C5
:106A80000F0015000398009001242600A81D019016
:106A90006846008A072801DA002020E0380080B22A
:106AA000082803D012200199087009E00098C279E3
:106AB0000098411C0098007805F083FC019908704B
:106AC000042028700E2068703000C01CA870EC7084
:106AD000C2202871FC206871B61D300080B205B05C
:106AE000F0BDFBB50700140001252E00A01D00908D
:106AF00068460089072801DA00201AE06846808885
:106B0000002803D012200099087003E005F065FC0E
:106B100000990870042020700E2060703000C01CA6
:106B2000A070E570C3202071FC206071B61D30009C
:106B300080B2FEBDFBB5050014000226A71D002093
:106B40006946087068460089082801DA00201DE0BF
:106B500068468088002802D01220387006E0684617
:106B600005F03FFC3870684600787870042020708B
:106B70000E2060703000C01CA0700120E070C420A6
:106B80002071FC206071B61D300080B2FEBDF9B5E9
:106B900083B00F0016000398019001242500B01D5A
:106BA00000906846008A072801DA002023E03800B8
:106BB00080B2032803D01220009908700CE00199DC
:106BC00008784A781206120C10430199897880B22D
:106BD00005F0E1FB00990870042030700E20707001
:106BE0002800C01CB070F470C5203071FC2070719A
:106BF000AD1D280080B205B0F0BDFCB583B0070024
:106C00000E00150000970324A81D02906846008A14
:106C1000092801DA00203FE0300080B2062803D0C6
:106C200012200299087027E000980279417909063C
:106C3000090C0A436846844600988378C17809069F
:106C4000090C0B4360468380009908784B781B063B
:106C50001B0C184392B26946898880B205F0C7FBC5
:106C600002990870009908784A781206120C1043AD
:106C700002994870000A8870042028700E206870FD
:106C80002000C01CA8700120E870C6202871FC20DC
:106C90006871A41D200080B205B0F0BDFEB50700EC
:106CA0000E00150000970324A81D01906846008976
:106CB000092801DA002035E0300080B2052803D031
:106CC0001220019908701DE000988178C2781206A0
:106CD000120C1143009A107853781B061B0C1843B2
:106CE000009A127989B280B205F08EFB0199087082
:106CF000009908784A781206120C104301994870DE
:106D0000000A8870042028700E2068702000C01CC3
:106D1000A8700120E870C7202871FC206871A41DAC
:106D2000200080B2FEBDF1B584B00F0015001E003A
:106D3000049801900324A81D0390300080B2092814
:106D400001DA002049E0380080B2082803D0122080
:106D50000399087031E00198437981790906090C9B
:106D60000B43684684460198C27801790906090CEC
:106D70000A43604642816846844601980278417819
:106D80000906090C0A43604602810198C079009007
:106D90009BB268464289019881786846008905F06F
:106DA00040FB03990870019908784A781206120C82
:106DB000104303994870000A8870042028700E2040
:106DC00068702000C01CA8700120E870C8202871DD
:106DD000FC206871A41D200080B205B0F0BDF3B5A1
:106DE00083B015001F000398009001242600A81D01
:106DF0000190380080B2072801DA00202CE06846B4
:106E0000008A062803D012200199087015E0009826
:106E1000C27801790906090C0A4300984178837801
:106E20001B061B0C19430098437992B289B2009853
:106E3000007805F009FB01990870042028700E20E5
:106E400068703000C01CA870EC70C9202871FC204C
:106E50006871B61D300080B205B0F0BDFBB507000B
:106E6000140001252E00A01D009068460089072807
:106E700001DA00201AE068468088002803D012203A
:106E80000099087003E005F05AFF0099087004208B
:106E900020700E2060703000C01CA0702800E070D0
:106EA0002571FD206071B61D300080B2FEBDFBB5BE
:106EB00088B01700089E3078012801D1022005E033
:106EC0003078022801D1102000E00020089908182D
:106ED000401C03900325B81D029000242000694641
:106EE00088806846008D092801DA002043E0307868
:106EF000012801D1022205E03078022801D11022B8
:106F000000E02200711C04A803F099FE30780128EB
:106F100001D1022404E03078022801D11024FFE7D7
:106F20006846808CE41CA04203D0122002990870AD
:106F300011E001A80090039843780398027804A90F
:106F4000307805F03EFF02990870029869468988FA
:106F50004170090A8170042038700E207870280072
:106F6000C01CB8700120F87002203871FD207871C3
:106F7000AD1D280080B20BB0F0BDF9B583B00F0095
:106F800015000398029003242600A81D01900020FC
:106F9000694608806846008A092801DA00202FE047
:106FA000380080B2042803D012200199087018E03C
:106FB00002988178C2781206120C1143029A107856
:106FC00053781B061B0C18436A4689B280B205F041
:106FD0004DFF019908700198694609884170090AB6
:106FE0008170042028700E2068703000C01CA870CA
:106FF0000120E8702C71FD206871B61D300080B250
:1070000005B0F0BDFBB58EB017000E9DA878012825
:1070100001D1022005E0A878022801D1102000E06B
:1070200000200E990818C01C07900326B81D089070
:10703000002420006946088310A80088092801DA86
:1070400000205BE0A878012801D1022205E0A878A1
:10705000022801D1102200E02200E91C09A803F057
